{"abi":[{"type":"constructor","inputs":[{"name":"priceFeed","type":"address","internalType":"address"}],"stateMutability":"nonpayable"},{"type":"fallback","stateMutability":"payable"},{"type":"receive","stateMutability":"payable"},{"type":"function","name":"MINIMUM_USD","inputs":[],"outputs":[{"name":"","type":"uint256","internalType":"uint256"}],"stateMutability":"view"},{"type":"function","name":"cheaperWithdraw","inputs":[],"outputs":[],"stateMutability":"payable"},{"type":"function","name":"fund","inputs":[],"outputs":[],"stateMutability":"payable"},{"type":"function","name":"getAddressToAmountFunded","inputs":[{"name":"fundingAddress","type":"address","internalType":"address"}],"outputs":[{"name":"","type":"uint256","internalType":"uint256"}],"stateMutability":"view"},{"type":"function","name":"getFunder","inputs":[{"name":"index","type":"uint256","internalType":"uint256"}],"outputs":[{"name":"","type":"address","internalType":"address"}],"stateMutability":"view"},{"type":"function","name":"getOwner","inputs":[],"outputs":[{"name":"","type":"address","internalType":"address"}],"stateMutability":"view"},{"type":"function","name":"getVersion","inputs":[],"outputs":[{"name":"","type":"uint256","internalType":"uint256"}],"stateMutability":"view"},{"type":"function","name":"withdraw","inputs":[],"outputs":[],"stateMutability":"nonpayable"},{"type":"error","name":"FundMe__NotOwner","inputs":[]}],"bytecode":{"object":"0x60a06040523480156200001157600080fd5b50604051620011f1380380620011f183398181016040528101906200003791906200011d565b3373ffffffffffffffffffffffffffffffffffffffff1660808173ffffffffffffffffffffffffffffffffffffffff168152505080600260006101000a81548173ffffffffffffffffffffffffffffffffffffffff021916908373ffffffffffffffffffffffffffffffffffffffff160217905550506200014f565b600080fd5b600073ffffffffffffffffffffffffffffffffffffffff82169050919050565b6000620000e582620000b8565b9050919050565b620000f781620000d8565b81146200010357600080fd5b50565b6000815190506200011781620000ec565b92915050565b600060208284031215620001365762000135620000b3565b5b6000620001468482850162000106565b91505092915050565b60805161107162000180600039600081816103d9015281816106270152818161064d01526107e501526110716000f3fe60806040526004361061007f5760003560e01c8063893d20e81161004e578063893d20e814610142578063b60d42881461016d578063be2693f014610177578063d7b4750c146101815761008e565b80630343fb25146100985780630d8e6e2c146100d55780633ccfd60b146101005780636b69a592146101175761008e565b3661008e5761008c6101be565b005b6100966101be565b005b3480156100a457600080fd5b506100bf60048036038101906100ba9190610ad0565b6102f7565b6040516100cc9190610b16565b60405180910390f35b3480156100e157600080fd5b506100ea61033f565b6040516100f79190610b16565b60405180910390f35b34801561010c57600080fd5b506101156103d7565b005b34801561012357600080fd5b5061012c610617565b6040516101399190610b16565b60405180910390f35b34801561014e57600080fd5b50610157610623565b6040516101649190610b40565b60405180910390f35b6101756101be565b005b61017f61064b565b005b34801561018d57600080fd5b506101a860048036038101906101a39190610b87565b6108b1565b6040516101b59190610b40565b60405180910390f35b674563918244f400006101fc600260009054906101000a900473ffffffffffffffffffffffffffffffffffffffff16346108f990919063ffffffff16565b101561023d576040517f08c379a000000000000000000000000000000000000000000000000000000000815260040161023490610c11565b60405180910390fd5b346000803373ffffffffffffffffffffffffffffffffffffffff1673ffffffffffffffffffffffffffffffffffffffff168152602001908152602001600020600082825461028b9190610c60565b925050819055506001339080600181540180825580915050600190039060005260206000200160009091909190916101000a81548173ffffffffffffffffffffffffffffffffffffffff021916908373ffffffffffffffffffffffffffffffffffffffff160217905550565b60008060008373ffffffffffffffffffffffffffffffffffffffff1673ffffffffffffffffffffffffffffffffffffffff168152602001908152602001600020549050919050565b6000600260009054906101000a900473ffffffffffffffffffffffffffffffffffffffff1673ffffffffffffffffffffffffffffffffffffffff166354fd4d506040518163ffffffff1660e01b8152600401602060405180830381865afa1580156103ae573d6000803e3d6000fd5b505050506040513d601f19601f820116820180604052508101906103d29190610ca9565b905090565b7f000000000000000000000000000000000000000000000000000000000000000073ffffffffffffffffffffffffffffffffffffffff163373ffffffffffffffffffffffffffffffffffffffff161461045c576040517f579610db00000000000000000000000000000000000000000000000000000000815260040160405180910390fd5b60005b6001805490508110156105075760006001828154811061048257610481610cd6565b5b9060005260206000200160009054906101000a900473ffffffffffffffffffffffffffffffffffffffff16905060008060008373ffffffffffffffffffffffffffffffffffffffff1673ffffffffffffffffffffffffffffffffffffffff168152602001908152602001600020819055505080806104ff90610d05565b91505061045f565b50600067ffffffffffffffff81111561052357610522610d4d565b5b6040519080825280602002602001820160405280156105515781602001602082028036833780820191505090505b50600190805190602001906105679291906109c6565b5060003373ffffffffffffffffffffffffffffffffffffffff164760405161058e90610dad565b60006040518083038185875af1925050503d80600081146105cb576040519150601f19603f3d011682016040523d82523d6000602084013e6105d0565b606091505b5050905080610614576040517f08c379a000000000000000000000000000000000000000000000000000000000815260040161060b90610e0e565b60405180910390fd5b50565b674563918244f4000081565b60007f0000000000000000000000000000000000000000000000000000000000000000905090565b7f000000000000000000000000000000000000000000000000000000000000000073ffffffffffffffffffffffffffffffffffffffff163373ffffffffffffffffffffffffffffffffffffffff16146106d0576040517f579610db00000000000000000000000000000000000000000000000000000000815260040160405180910390fd5b6000600180549050905060005b81811015610780576000600182815481106106fb576106fa610cd6565b5b9060005260206000200160009054906101000a900473ffffffffffffffffffffffffffffffffffffffff16905060008060008373ffffffffffffffffffffffffffffffffffffffff1673ffffffffffffffffffffffffffffffffffffffff1681526020019081526020016000208190555050808061077890610d05565b9150506106dd565b50600067ffffffffffffffff81111561079c5761079b610d4d565b5b6040519080825280602002602001820160405280156107ca5781602001602082028036833780820191505090505b50600190805190602001906107e09291906109c6565b5060007f000000000000000000000000000000000000000000000000000000000000000073ffffffffffffffffffffffffffffffffffffffff164760405161082790610dad565b60006040518083038185875af1925050503d8060008114610864576040519150601f19603f3d011682016040523d82523d6000602084013e610869565b606091505b50509050806108ad576040517f08c379a00000000000000000000000000000000000000000000000000000000081526004016108a490610e0e565b60405180910390fd5b5050565b6000600182815481106108c7576108c6610cd6565b5b9060005260206000200160009054906101000a900473ffffffffffffffffffffffffffffffffffffffff169050919050565b60008061090583610935565b90506000670de0b6b3a7640000858361091e9190610e2e565b6109289190610e9f565b9050809250505092915050565b6000808273ffffffffffffffffffffffffffffffffffffffff1663feaf968c6040518163ffffffff1660e01b815260040160a060405180830381865afa158015610983573d6000803e3d6000fd5b505050506040513d601f19601f820116820180604052508101906109a79190610f48565b5050509150506402540be400816109be9190610fc3565b915050919050565b828054828255906000526020600020908101928215610a3f579160200282015b82811115610a3e5782518260006101000a81548173ffffffffffffffffffffffffffffffffffffffff021916908373ffffffffffffffffffffffffffffffffffffffff160217905550916020019190600101906109e6565b5b509050610a4c9190610a50565b5090565b5b80821115610a69576000816000905550600101610a51565b5090565b600080fd5b600073ffffffffffffffffffffffffffffffffffffffff82169050919050565b6000610a9d82610a72565b9050919050565b610aad81610a92565b8114610ab857600080fd5b50565b600081359050610aca81610aa4565b92915050565b600060208284031215610ae657610ae5610a6d565b5b6000610af484828501610abb565b91505092915050565b6000819050919050565b610b1081610afd565b82525050565b6000602082019050610b2b6000830184610b07565b92915050565b610b3a81610a92565b82525050565b6000602082019050610b556000830184610b31565b92915050565b610b6481610afd565b8114610b6f57600080fd5b50565b600081359050610b8181610b5b565b92915050565b600060208284031215610b9d57610b9c610a6d565b5b6000610bab84828501610b72565b91505092915050565b600082825260208201905092915050565b7f596f75206e65656420746f207370656e64206d6f726520455448210000000000600082015250565b6000610bfb601b83610bb4565b9150610c0682610bc5565b602082019050919050565b60006020820190508181036000830152610c2a81610bee565b9050919050565b7f4e487b7100000000000000000000000000000000000000000000000000000000600052601160045260246000fd5b6000610c6b82610afd565b9150610c7683610afd565b9250828201905080821115610c8e57610c8d610c31565b5b92915050565b600081519050610ca381610b5b565b92915050565b600060208284031215610cbf57610cbe610a6d565b5b6000610ccd84828501610c94565b91505092915050565b7f4e487b7100000000000000000000000000000000000000000000000000000000600052603260045260246000fd5b6000610d1082610afd565b91507fffffffffffffffffffffffffffffffffffffffffffffffffffffffffffffffff8203610d4257610d41610c31565b5b600182019050919050565b7f4e487b7100000000000000000000000000000000000000000000000000000000600052604160045260246000fd5b600081905092915050565b50565b6000610d97600083610d7c565b9150610da282610d87565b600082019050919050565b6000610db882610d8a565b9150819050919050565b7f43616c6c206661696c6564000000000000000000000000000000000000000000600082015250565b6000610df8600b83610bb4565b9150610e0382610dc2565b602082019050919050565b60006020820190508181036000830152610e2781610deb565b9050919050565b6000610e3982610afd565b9150610e4483610afd565b9250828202610e5281610afd565b91508282048414831517610e6957610e68610c31565b5b5092915050565b7f4e487b7100000000000000000000000000000000000000000000000000000000600052601260045260246000fd5b6000610eaa82610afd565b9150610eb583610afd565b925082610ec557610ec4610e70565b5b828204905092915050565b600069ffffffffffffffffffff82169050919050565b610eef81610ed0565b8114610efa57600080fd5b50565b600081519050610f0c81610ee6565b92915050565b6000819050919050565b610f2581610f12565b8114610f3057600080fd5b50565b600081519050610f4281610f1c565b92915050565b600080600080600060a08688031215610f6457610f63610a6d565b5b6000610f7288828901610efd565b9550506020610f8388828901610f33565b9450506040610f9488828901610c94565b9350506060610fa588828901610c94565b9250506080610fb688828901610efd565b9150509295509295909350565b6000610fce82610f12565b9150610fd983610f12565b9250828202610fe781610f12565b91507f8000000000000000000000000000000000000000000000000000000000000000841460008412161561101f5761101e610c31565b5b828205841483151761103457611033610c31565b5b509291505056fea264697066735822122010f6a2b1086e2b363262231d3d5e66fa5f9faf58e6e7a39a1c405a2eea8bb69a64736f6c63430008130033","linkReferences":{}},"methodIdentifiers":{"MINIMUM_USD()":"6b69a592","cheaperWithdraw()":"be2693f0","fund()":"b60d4288","getAddressToAmountFunded(address)":"0343fb25","getFunder(uint256)":"d7b4750c","getOwner()":"893d20e8","getVersion()":"0d8e6e2c","withdraw()":"3ccfd60b"},"id":26}