{"abi":[{"type":"function","name":"balanceOf","inputs":[{"name":"","type":"address","internalType":"address"},{"name":"","type":"uint256","internalType":"uint256"}],"outputs":[{"name":"","type":"uint256","internalType":"uint256"}],"stateMutability":"view"},{"type":"function","name":"balanceOfBatch","inputs":[{"name":"owners","type":"address[]","internalType":"address[]"},{"name":"ids","type":"uint256[]","internalType":"uint256[]"}],"outputs":[{"name":"balances","type":"uint256[]","internalType":"uint256[]"}],"stateMutability":"view"},{"type":"function","name":"batchBurn","inputs":[{"name":"ids","type":"uint256[]","internalType":"uint256[]"},{"name":"values","type":"uint256[]","internalType":"uint256[]"}],"outputs":[],"stateMutability":"nonpayable"},{"type":"function","name":"batchMint","inputs":[{"name":"ids","type":"uint256[]","internalType":"uint256[]"},{"name":"values","type":"uint256[]","internalType":"uint256[]"},{"name":"data","type":"bytes","internalType":"bytes"}],"outputs":[],"stateMutability":"nonpayable"},{"type":"function","name":"burn","inputs":[{"name":"id","type":"uint256","internalType":"uint256"},{"name":"value","type":"uint256","internalType":"uint256"}],"outputs":[],"stateMutability":"nonpayable"},{"type":"function","name":"isApprovedForAll","inputs":[{"name":"","type":"address","internalType":"address"},{"name":"","type":"address","internalType":"address"}],"outputs":[{"name":"","type":"bool","internalType":"bool"}],"stateMutability":"view"},{"type":"function","name":"mint","inputs":[{"name":"id","type":"uint256","internalType":"uint256"},{"name":"value","type":"uint256","internalType":"uint256"},{"name":"data","type":"bytes","internalType":"bytes"}],"outputs":[],"stateMutability":"nonpayable"},{"type":"function","name":"safeBatchTransferFrom","inputs":[{"name":"from","type":"address","internalType":"address"},{"name":"to","type":"address","internalType":"address"},{"name":"ids","type":"uint256[]","internalType":"uint256[]"},{"name":"values","type":"uint256[]","internalType":"uint256[]"},{"name":"data","type":"bytes","internalType":"bytes"}],"outputs":[],"stateMutability":"nonpayable"},{"type":"function","name":"safeTransferFrom","inputs":[{"name":"from","type":"address","internalType":"address"},{"name":"to","type":"address","internalType":"address"},{"name":"id","type":"uint256","internalType":"uint256"},{"name":"value","type":"uint256","internalType":"uint256"},{"name":"data","type":"bytes","internalType":"bytes"}],"outputs":[],"stateMutability":"nonpayable"},{"type":"function","name":"setApprovalForAll","inputs":[{"name":"operator","type":"address","internalType":"address"},{"name":"approved","type":"bool","internalType":"bool"}],"outputs":[],"stateMutability":"nonpayable"},{"type":"function","name":"supportsInterface","inputs":[{"name":"interfaceId","type":"bytes4","internalType":"bytes4"}],"outputs":[{"name":"","type":"bool","internalType":"bool"}],"stateMutability":"pure"},{"type":"function","name":"uri","inputs":[{"name":"id","type":"uint256","internalType":"uint256"}],"outputs":[{"name":"","type":"string","internalType":"string"}],"stateMutability":"view"},{"type":"event","name":"ERC1155__ApproveForAll","inputs":[{"name":"owner","type":"address","indexed":true,"internalType":"address"},{"name":"operator","type":"address","indexed":true,"internalType":"address"},{"name":"approved","type":"bool","indexed":false,"internalType":"bool"}],"anonymous":false},{"type":"event","name":"ERC1155__TransferBatch","inputs":[{"name":"operator","type":"address","indexed":true,"internalType":"address"},{"name":"from","type":"address","indexed":true,"internalType":"address"},{"name":"to","type":"address","indexed":true,"internalType":"address"},{"name":"ids","type":"uint256[]","indexed":false,"internalType":"uint256[]"},{"name":"values","type":"uint256[]","indexed":false,"internalType":"uint256[]"}],"anonymous":false},{"type":"event","name":"ERC1155__TransferSingle","inputs":[{"name":"operator","type":"address","indexed":true,"internalType":"address"},{"name":"from","type":"address","indexed":true,"internalType":"address"},{"name":"to","type":"address","indexed":true,"internalType":"address"},{"name":"id","type":"uint256","indexed":false,"internalType":"uint256"},{"name":"value","type":"uint256","indexed":false,"internalType":"uint256"}],"anonymous":false}],"bytecode":{"object":"0x6080604052348015600e575f5ffd5b5061280c8061001c5f395ff3fe608060405234801561000f575f5ffd5b50600436106100b1575f3560e01c80634e1273f41161006f5780634e1273f414610199578063a22cb465146101c9578063b390c0ab146101e5578063cf04192e14610201578063e985e9c51461021d578063f242432a1461024d576100b1565b8062fdd58e146100b557806301ffc9a7146100e557806308dc9f42146101155780630e89341c1461013157806320ec271b146101615780632eb2c2d61461017d575b5f5ffd5b6100cf60048036038101906100ca91906117f4565b610269565b6040516100dc9190611841565b60405180910390f35b6100ff60048036038101906100fa91906118af565b610288565b60405161010c91906118f4565b60405180910390f35b61012f600480360381019061012a9190611a49565b610319565b005b61014b60048036038101906101469190611ab5565b61032a565b6040516101589190611b40565b60405180910390f35b61017b60048036038101906101769190611bbd565b610331565b005b61019760048036038101906101929190611c90565b610344565b005b6101b360048036038101906101ae9190611dbc565b6107f1565b6040516101c09190611ef1565b60405180910390f35b6101e360048036038101906101de9190611f3b565b61095a565b005b6101ff60048036038101906101fa9190611f79565b610a52565b005b61021b60048036038101906102169190611fb7565b610a61565b005b61023760048036038101906102329190612067565b610a78565b60405161024491906118f4565b60405180910390f35b610267600480360381019061026291906120a5565b610aa2565b005b5f602052815f5260405f20602052805f5260405f205f91509150505481565b5f6301ffc9a760e01b827bffffffffffffffffffffffffffffffffffffffffffffffffffffffff191614806102e2575063d9b67a2660e01b827bffffffffffffffffffffffffffffffffffffffffffffffffffffffff1916145b806103125750630e89341c60e01b827bffffffffffffffffffffffffffffffffffffffffffffffffffffffff1916145b9050919050565b61032533848484610e7b565b505050565b6060919050565b61033e33858585856110f5565b50505050565b8773ffffffffffffffffffffffffffffffffffffffff163373ffffffffffffffffffffffffffffffffffffffff1614806103ff575060015f8973ffffffffffffffffffffffffffffffffffffffff1673ffffffffffffffffffffffffffffffffffffffff1681526020019081526020015f205f3373ffffffffffffffffffffffffffffffffffffffff1673ffffffffffffffffffffffffffffffffffffffff1681526020019081526020015f205f9054906101000a900460ff165b61043e576040517f08c379a000000000000000000000000000000000000000000000000000000000815260040161043590612185565b60405180910390fd5b5f73ffffffffffffffffffffffffffffffffffffffff168773ffffffffffffffffffffffffffffffffffffffff16036104ac576040517f08c379a00000000000000000000000000000000000000000000000000000000081526004016104a3906121ed565b60405180910390fd5b8383905086869050146104f4576040517f08c379a00000000000000000000000000000000000000000000000000000000081526004016104eb90612255565b60405180910390fd5b5f5f90505b868690508110156106375784848281811061051757610516612273565b5b905060200201355f5f8b73ffffffffffffffffffffffffffffffffffffffff1673ffffffffffffffffffffffffffffffffffffffff1681526020019081526020015f205f89898581811061056e5761056d612273565b5b9050602002013581526020019081526020015f205f82825461059091906122cd565b925050819055508484828181106105aa576105a9612273565b5b905060200201355f5f8a73ffffffffffffffffffffffffffffffffffffffff1673ffffffffffffffffffffffffffffffffffffffff1681526020019081526020015f205f89898581811061060157610600612273565b5b9050602002013581526020019081526020015f205f8282546106239190612300565b9250508190555080806001019150506104f9565b508673ffffffffffffffffffffffffffffffffffffffff168873ffffffffffffffffffffffffffffffffffffffff163373ffffffffffffffffffffffffffffffffffffffff167f2ef1f1c0c6daf5d1f2bee0c7ccaf49ba2f4c83e8df500bab11a9389d2a3d10e7898989896040516106b2949392919061239b565b60405180910390a45f8773ffffffffffffffffffffffffffffffffffffffff163b11156107e75763bc197c8160e01b7bffffffffffffffffffffffffffffffffffffffffffffffffffffffff19168773ffffffffffffffffffffffffffffffffffffffff1663bc197c81338b8a8a8a8a8a8a6040518963ffffffff1660e01b815260040161074798979695949392919061241f565b6020604051808303815f875af1158015610763573d5f5f3e3d5ffd5b505050506040513d601f19601f82011682018060405250810190610787919061249f565b7bffffffffffffffffffffffffffffffffffffffffffffffffffffffff1916146107e6576040517f08c379a00000000000000000000000000000000000000000000000000000000081526004016107dd90612514565b60405180910390fd5b5b5050505050505050565b606082829050858590501461083b576040517f08c379a0000000000000000000000000000000000000000000000000000000008152600401610832906125a2565b60405180910390fd5b8484905067ffffffffffffffff81111561085857610857611925565b5b6040519080825280602002602001820160405280156108865781602001602082028036833780820191505090505b5090505f5f90505b85859050811015610951575f5f8787848181106108ae576108ad612273565b5b90506020020160208101906108c391906125c0565b73ffffffffffffffffffffffffffffffffffffffff1673ffffffffffffffffffffffffffffffffffffffff1681526020019081526020015f205f8585848181106109105761090f612273565b5b9050602002013581526020019081526020015f205482828151811061093857610937612273565b5b602002602001018181525050808060010191505061088e565b50949350505050565b8060015f3373ffffffffffffffffffffffffffffffffffffffff1673ffffffffffffffffffffffffffffffffffffffff1681526020019081526020015f205f8473ffffffffffffffffffffffffffffffffffffffff1673ffffffffffffffffffffffffffffffffffffffff1681526020019081526020015f205f6101000a81548160ff0219169083151502179055508173ffffffffffffffffffffffffffffffffffffffff163373ffffffffffffffffffffffffffffffffffffffff167f708e042249c4a09da784928832707dff3c05da76524c8b5d49884f44d2e2ecf983604051610a4691906118f4565b60405180910390a35050565b610a5d3383836112e5565b5050565b610a7033878787878787611437565b505050505050565b6001602052815f5260405f20602052805f5260405f205f915091509054906101000a900460ff1681565b8573ffffffffffffffffffffffffffffffffffffffff163373ffffffffffffffffffffffffffffffffffffffff161480610b5d575060015f8773ffffffffffffffffffffffffffffffffffffffff1673ffffffffffffffffffffffffffffffffffffffff1681526020019081526020015f205f3373ffffffffffffffffffffffffffffffffffffffff1673ffffffffffffffffffffffffffffffffffffffff1681526020019081526020015f205f9054906101000a900460ff165b610b9c576040517f08c379a0000000000000000000000000000000000000000000000000000000008152600401610b9390612185565b60405180910390fd5b5f73ffffffffffffffffffffffffffffffffffffffff168573ffffffffffffffffffffffffffffffffffffffff1603610c0a576040517f08c379a0000000000000000000000000000000000000000000000000000000008152600401610c0190612635565b60405180910390fd5b825f5f8873ffffffffffffffffffffffffffffffffffffffff1673ffffffffffffffffffffffffffffffffffffffff1681526020019081526020015f205f8681526020019081526020015f205f828254610c6491906122cd565b92505081905550825f5f8773ffffffffffffffffffffffffffffffffffffffff1673ffffffffffffffffffffffffffffffffffffffff1681526020019081526020015f205f8681526020019081526020015f205f828254610cc59190612300565b925050819055508473ffffffffffffffffffffffffffffffffffffffff168673ffffffffffffffffffffffffffffffffffffffff163373ffffffffffffffffffffffffffffffffffffffff167fb9f0e164013b8103bddbe975ad9f42c9f0d556a046f5bee254065f101c3594de8787604051610d42929190612653565b60405180910390a45f8573ffffffffffffffffffffffffffffffffffffffff163b1115610e735763f23a6e6160e01b7bffffffffffffffffffffffffffffffffffffffffffffffffffffffff19168573ffffffffffffffffffffffffffffffffffffffff1663f23a6e613389888888886040518763ffffffff1660e01b8152600401610dd39695949392919061267a565b6020604051808303815f875af1158015610def573d5f5f3e3d5ffd5b505050506040513d601f19601f82011682018060405250810190610e13919061249f565b7bffffffffffffffffffffffffffffffffffffffffffffffffffffffff191614610e72576040517f08c379a0000000000000000000000000000000000000000000000000000000008152600401610e6990612514565b60405180910390fd5b5b505050505050565b5f73ffffffffffffffffffffffffffffffffffffffff168473ffffffffffffffffffffffffffffffffffffffff1603610ee9576040517f08c379a0000000000000000000000000000000000000000000000000000000008152600401610ee090612635565b60405180910390fd5b815f5f8673ffffffffffffffffffffffffffffffffffffffff1673ffffffffffffffffffffffffffffffffffffffff1681526020019081526020015f205f8581526020019081526020015f205f828254610f439190612300565b925050819055508373ffffffffffffffffffffffffffffffffffffffff165f73ffffffffffffffffffffffffffffffffffffffff163373ffffffffffffffffffffffffffffffffffffffff167fb9f0e164013b8103bddbe975ad9f42c9f0d556a046f5bee254065f101c3594de8686604051610fc0929190612653565b60405180910390a45f8473ffffffffffffffffffffffffffffffffffffffff163b11156110ef5763f23a6e6160e01b7bffffffffffffffffffffffffffffffffffffffffffffffffffffffff19168473ffffffffffffffffffffffffffffffffffffffff1663f23a6e61335f8787876040518663ffffffff1660e01b815260040161104f959493929190612716565b6020604051808303815f875af115801561106b573d5f5f3e3d5ffd5b505050506040513d601f19601f8201168201806040525081019061108f919061249f565b7bffffffffffffffffffffffffffffffffffffffffffffffffffffffff1916146110ee576040517f08c379a00000000000000000000000000000000000000000000000000000000081526004016110e590612514565b60405180910390fd5b5b50505050565b5f73ffffffffffffffffffffffffffffffffffffffff168573ffffffffffffffffffffffffffffffffffffffff1603611163576040517f08c379a000000000000000000000000000000000000000000000000000000000815260040161115a906121ed565b60405180910390fd5b8181905084849050146111ab576040517f08c379a00000000000000000000000000000000000000000000000000000000081526004016111a290612255565b60405180910390fd5b5f5f90505b8484905081101561125b578282828181106111ce576111cd612273565b5b905060200201355f5f8873ffffffffffffffffffffffffffffffffffffffff1673ffffffffffffffffffffffffffffffffffffffff1681526020019081526020015f205f87878581811061122557611224612273565b5b9050602002013581526020019081526020015f205f82825461124791906122cd565b9250508190555080806001019150506111b0565b505f73ffffffffffffffffffffffffffffffffffffffff168573ffffffffffffffffffffffffffffffffffffffff163373ffffffffffffffffffffffffffffffffffffffff167f2ef1f1c0c6daf5d1f2bee0c7ccaf49ba2f4c83e8df500bab11a9389d2a3d10e7878787876040516112d6949392919061239b565b60405180910390a45050505050565b5f73ffffffffffffffffffffffffffffffffffffffff168373ffffffffffffffffffffffffffffffffffffffff1603611353576040517f08c379a000000000000000000000000000000000000000000000000000000000815260040161134a906127b8565b60405180910390fd5b805f5f8573ffffffffffffffffffffffffffffffffffffffff1673ffffffffffffffffffffffffffffffffffffffff1681526020019081526020015f205f8481526020019081526020015f205f8282546113ad91906122cd565b925050819055505f73ffffffffffffffffffffffffffffffffffffffff168373ffffffffffffffffffffffffffffffffffffffff163373ffffffffffffffffffffffffffffffffffffffff167fb9f0e164013b8103bddbe975ad9f42c9f0d556a046f5bee254065f101c3594de858560405161142a929190612653565b60405180910390a4505050565b5f73ffffffffffffffffffffffffffffffffffffffff168773ffffffffffffffffffffffffffffffffffffffff16036114a5576040517f08c379a000000000000000000000000000000000000000000000000000000000815260040161149c906121ed565b60405180910390fd5b8383905086869050146114ed576040517f08c379a00000000000000000000000000000000000000000000000000000000081526004016114e490612255565b60405180910390fd5b5f5f90505b8686905081101561159d578484828181106115105761150f612273565b5b905060200201355f5f8a73ffffffffffffffffffffffffffffffffffffffff1673ffffffffffffffffffffffffffffffffffffffff1681526020019081526020015f205f89898581811061156757611566612273565b5b9050602002013581526020019081526020015f205f8282546115899190612300565b9250508190555080806001019150506114f2565b508673ffffffffffffffffffffffffffffffffffffffff165f73ffffffffffffffffffffffffffffffffffffffff163373ffffffffffffffffffffffffffffffffffffffff167f2ef1f1c0c6daf5d1f2bee0c7ccaf49ba2f4c83e8df500bab11a9389d2a3d10e789898989604051611618949392919061239b565b60405180910390a45f8773ffffffffffffffffffffffffffffffffffffffff163b111561174d5763bc197c8160e01b7bffffffffffffffffffffffffffffffffffffffffffffffffffffffff19168773ffffffffffffffffffffffffffffffffffffffff1663bc197c81335f8a8a8a8a8a8a6040518963ffffffff1660e01b81526004016116ad98979695949392919061241f565b6020604051808303815f875af11580156116c9573d5f5f3e3d5ffd5b505050506040513d601f19601f820116820180604052508101906116ed919061249f565b7bffffffffffffffffffffffffffffffffffffffffffffffffffffffff19161461174c576040517f08c379a000000000000000000000000000000000000000000000000000000000815260040161174390612514565b60405180910390fd5b5b50505050505050565b5f604051905090565b5f5ffd5b5f5ffd5b5f73ffffffffffffffffffffffffffffffffffffffff82169050919050565b5f61179082611767565b9050919050565b6117a081611786565b81146117aa575f5ffd5b50565b5f813590506117bb81611797565b92915050565b5f819050919050565b6117d3816117c1565b81146117dd575f5ffd5b50565b5f813590506117ee816117ca565b92915050565b5f5f6040838503121561180a5761180961175f565b5b5f611817858286016117ad565b9250506020611828858286016117e0565b9150509250929050565b61183b816117c1565b82525050565b5f6020820190506118545f830184611832565b92915050565b5f7fffffffff0000000000000000000000000000000000000000000000000000000082169050919050565b61188e8161185a565b8114611898575f5ffd5b50565b5f813590506118a981611885565b92915050565b5f602082840312156118c4576118c361175f565b5b5f6118d18482850161189b565b91505092915050565b5f8115159050919050565b6118ee816118da565b82525050565b5f6020820190506119075f8301846118e5565b92915050565b5f5ffd5b5f5ffd5b5f601f19601f8301169050919050565b7f4e487b71000000000000000000000000000000000000000000000000000000005f52604160045260245ffd5b61195b82611915565b810181811067ffffffffffffffff8211171561197a57611979611925565b5b80604052505050565b5f61198c611756565b90506119988282611952565b919050565b5f67ffffffffffffffff8211156119b7576119b6611925565b5b6119c082611915565b9050602081019050919050565b828183375f83830152505050565b5f6119ed6119e88461199d565b611983565b905082815260208101848484011115611a0957611a08611911565b5b611a148482856119cd565b509392505050565b5f82601f830112611a3057611a2f61190d565b5b8135611a408482602086016119db565b91505092915050565b5f5f5f60608486031215611a6057611a5f61175f565b5b5f611a6d868287016117e0565b9350506020611a7e868287016117e0565b925050604084013567ffffffffffffffff811115611a9f57611a9e611763565b5b611aab86828701611a1c565b9150509250925092565b5f60208284031215611aca57611ac961175f565b5b5f611ad7848285016117e0565b91505092915050565b5f81519050919050565b5f82825260208201905092915050565b8281835e5f83830152505050565b5f611b1282611ae0565b611b1c8185611aea565b9350611b2c818560208601611afa565b611b3581611915565b840191505092915050565b5f6020820190508181035f830152611b588184611b08565b905092915050565b5f5ffd5b5f5ffd5b5f5f83601f840112611b7d57611b7c61190d565b5b8235905067ffffffffffffffff811115611b9a57611b99611b60565b5b602083019150836020820283011115611bb657611bb5611b64565b5b9250929050565b5f5f5f5f60408587031215611bd557611bd461175f565b5b5f85013567ffffffffffffffff811115611bf257611bf1611763565b5b611bfe87828801611b68565b9450945050602085013567ffffffffffffffff811115611c2157611c20611763565b5b611c2d87828801611b68565b925092505092959194509250565b5f5f83601f840112611c5057611c4f61190d565b5b8235905067ffffffffffffffff811115611c6d57611c6c611b60565b5b602083019150836001820283011115611c8957611c88611b64565b5b9250929050565b5f5f5f5f5f5f5f5f60a0898b031215611cac57611cab61175f565b5b5f611cb98b828c016117ad565b9850506020611cca8b828c016117ad565b975050604089013567ffffffffffffffff811115611ceb57611cea611763565b5b611cf78b828c01611b68565b9650965050606089013567ffffffffffffffff811115611d1a57611d19611763565b5b611d268b828c01611b68565b9450945050608089013567ffffffffffffffff811115611d4957611d48611763565b5b611d558b828c01611c3b565b92509250509295985092959890939650565b5f5f83601f840112611d7c57611d7b61190d565b5b8235905067ffffffffffffffff811115611d9957611d98611b60565b5b602083019150836020820283011115611db557611db4611b64565b5b9250929050565b5f5f5f5f60408587031215611dd457611dd361175f565b5b5f85013567ffffffffffffffff811115611df157611df0611763565b5b611dfd87828801611d67565b9450945050602085013567ffffffffffffffff811115611e2057611e1f611763565b5b611e2c87828801611b68565b925092505092959194509250565b5f81519050919050565b5f82825260208201905092915050565b5f819050602082019050919050565b611e6c816117c1565b82525050565b5f611e7d8383611e63565b60208301905092915050565b5f602082019050919050565b5f611e9f82611e3a565b611ea98185611e44565b9350611eb483611e54565b805f5b83811015611ee4578151611ecb8882611e72565b9750611ed683611e89565b925050600181019050611eb7565b5085935050505092915050565b5f6020820190508181035f830152611f098184611e95565b905092915050565b611f1a816118da565b8114611f24575f5ffd5b50565b5f81359050611f3581611f11565b92915050565b5f5f60408385031215611f5157611f5061175f565b5b5f611f5e858286016117ad565b9250506020611f6f85828601611f27565b9150509250929050565b5f5f60408385031215611f8f57611f8e61175f565b5b5f611f9c858286016117e0565b9250506020611fad858286016117e0565b9150509250929050565b5f5f5f5f5f5f60608789031215611fd157611fd061175f565b5b5f87013567ffffffffffffffff811115611fee57611fed611763565b5b611ffa89828a01611b68565b9650965050602087013567ffffffffffffffff81111561201d5761201c611763565b5b61202989828a01611b68565b9450945050604087013567ffffffffffffffff81111561204c5761204b611763565b5b61205889828a01611c3b565b92509250509295509295509295565b5f5f6040838503121561207d5761207c61175f565b5b5f61208a858286016117ad565b925050602061209b858286016117ad565b9150509250929050565b5f5f5f5f5f5f60a087890312156120bf576120be61175f565b5b5f6120cc89828a016117ad565b96505060206120dd89828a016117ad565b95505060406120ee89828a016117e0565b94505060606120ff89828a016117e0565b935050608087013567ffffffffffffffff8111156121205761211f611763565b5b61212c89828a01611c3b565b92509250509295509295509295565b7f6e6f7420617574686f72697a65640000000000000000000000000000000000005f82015250565b5f61216f600e83611aea565b915061217a8261213b565b602082019050919050565b5f6020820190508181035f83015261219c81612163565b9050919050565b7f746f2069732061646472657373207a65726f00000000000000000000000000005f82015250565b5f6121d7601283611aea565b91506121e2826121a3565b602082019050919050565b5f6020820190508181035f830152612204816121cb565b9050919050565b7f746865206c656e6774682061727261797320646f206e6f74206d6174636800005f82015250565b5f61223f601e83611aea565b915061224a8261220b565b602082019050919050565b5f6020820190508181035f83015261226c81612233565b9050919050565b7f4e487b71000000000000000000000000000000000000000000000000000000005f52603260045260245ffd5b7f4e487b71000000000000000000000000000000000000000000000000000000005f52601160045260245ffd5b5f6122d7826117c1565b91506122e2836117c1565b92508282039050818111156122fa576122f96122a0565b5b92915050565b5f61230a826117c1565b9150612315836117c1565b925082820190508082111561232d5761232c6122a0565b5b92915050565b5f5ffd5b82818337505050565b5f61234b8385611e44565b93507f07ffffffffffffffffffffffffffffffffffffffffffffffffffffffffffffff83111561237e5761237d612333565b5b60208302925061238f838584612337565b82840190509392505050565b5f6040820190508181035f8301526123b4818688612340565b905081810360208301526123c9818486612340565b905095945050505050565b6123dd81611786565b82525050565b5f82825260208201905092915050565b5f6123fe83856123e3565b935061240b8385846119cd565b61241483611915565b840190509392505050565b5f60a0820190506124325f83018b6123d4565b61243f602083018a6123d4565b818103604083015261245281888a612340565b90508181036060830152612467818688612340565b9050818103608083015261247c8184866123f3565b90509998505050505050505050565b5f8151905061249981611885565b92915050565b5f602082840312156124b4576124b361175f565b5b5f6124c18482850161248b565b91505092915050565b7f756e73616665207472616e7366657200000000000000000000000000000000005f82015250565b5f6124fe600f83611aea565b9150612509826124ca565b602082019050919050565b5f6020820190508181035f83015261252b816124f2565b9050919050565b7f746865206c656e67746873206f66207468652061727261797320646f206e6f745f8201527f206d617463680000000000000000000000000000000000000000000000000000602082015250565b5f61258c602683611aea565b915061259782612532565b604082019050919050565b5f6020820190508181035f8301526125b981612580565b9050919050565b5f602082840312156125d5576125d461175f565b5b5f6125e2848285016117ad565b91505092915050565b7f746f206973207a65726f206164647265737300000000000000000000000000005f82015250565b5f61261f601283611aea565b915061262a826125eb565b602082019050919050565b5f6020820190508181035f83015261264c81612613565b9050919050565b5f6040820190506126665f830185611832565b6126736020830184611832565b9392505050565b5f60a08201905061268d5f8301896123d4565b61269a60208301886123d4565b6126a76040830187611832565b6126b46060830186611832565b81810360808301526126c78184866123f3565b9050979650505050505050565b5f81519050919050565b5f6126e8826126d4565b6126f281856123e3565b9350612702818560208601611afa565b61270b81611915565b840191505092915050565b5f60a0820190506127295f8301886123d4565b61273660208301876123d4565b6127436040830186611832565b6127506060830185611832565b818103608083015261276281846126de565b90509695505050505050565b7f66726f6d206973207a65726f20616464726573730000000000000000000000005f82015250565b5f6127a2601483611aea565b91506127ad8261276e565b602082019050919050565b5f6020820190508181035f8301526127cf81612796565b905091905056fea26469706673582212205a7c6195ab62072f983854795b2f9411e77b8889ba5e74c4bde674d0f397b95164736f6c634300081c0033","linkReferences":{}},"methodIdentifiers":{"balanceOf(address,uint256)":"00fdd58e","balanceOfBatch(address[],uint256[])":"4e1273f4","batchBurn(uint256[],uint256[])":"20ec271b","batchMint(uint256[],uint256[],bytes)":"cf04192e","burn(uint256,uint256)":"b390c0ab","isApprovedForAll(address,address)":"e985e9c5","mint(uint256,uint256,bytes)":"08dc9f42","safeBatchTransferFrom(address,address,uint256[],uint256[],bytes)":"2eb2c2d6","safeTransferFrom(address,address,uint256,uint256,bytes)":"f242432a","setApprovalForAll(address,bool)":"a22cb465","supportsInterface(bytes4)":"01ffc9a7","uri(uint256)":"0e89341c"},"id":0}