{"abi":[{"type":"constructor","inputs":[{"name":"token0","type":"address","internalType":"address"},{"name":"token1","type":"address","internalType":"address"},{"name":"fee","type":"uint24","internalType":"uint24"},{"name":"tickSpacing","type":"int24","internalType":"int24"}],"stateMutability":"nonpayable"},{"type":"function","name":"burn","inputs":[{"name":"tickLower","type":"int24","internalType":"int24"},{"name":"tickUpper","type":"int24","internalType":"int24"},{"name":"amount","type":"uint128","internalType":"uint128"}],"outputs":[{"name":"amount0","type":"uint256","internalType":"uint256"},{"name":"amount1","type":"uint256","internalType":"uint256"}],"stateMutability":"nonpayable"},{"type":"function","name":"collect","inputs":[{"name":"recipient","type":"address","internalType":"address"},{"name":"tickLower","type":"int24","internalType":"int24"},{"name":"tickUpper","type":"int24","internalType":"int24"},{"name":"amount0Requested","type":"uint128","internalType":"uint128"},{"name":"amount1Requested","type":"uint128","internalType":"uint128"}],"outputs":[{"name":"amount0","type":"uint128","internalType":"uint128"},{"name":"amount1","type":"uint128","internalType":"uint128"}],"stateMutability":"nonpayable"},{"type":"function","name":"feeGrowthGlobal0X128","inputs":[],"outputs":[{"name":"","type":"uint256","internalType":"uint256"}],"stateMutability":"view"},{"type":"function","name":"feeGrowthGlobal1X128","inputs":[],"outputs":[{"name":"","type":"uint256","internalType":"uint256"}],"stateMutability":"view"},{"type":"function","name":"i_fee","inputs":[],"outputs":[{"name":"","type":"uint24","internalType":"uint24"}],"stateMutability":"view"},{"type":"function","name":"i_maxLiquidityPerTick","inputs":[],"outputs":[{"name":"","type":"uint128","internalType":"uint128"}],"stateMutability":"view"},{"type":"function","name":"i_tickSpacing","inputs":[],"outputs":[{"name":"","type":"int24","internalType":"int24"}],"stateMutability":"view"},{"type":"function","name":"i_token0","inputs":[],"outputs":[{"name":"","type":"address","internalType":"address"}],"stateMutability":"view"},{"type":"function","name":"i_token1","inputs":[],"outputs":[{"name":"","type":"address","internalType":"address"}],"stateMutability":"view"},{"type":"function","name":"initialize","inputs":[{"name":"sqrtPriceX96","type":"uint160","internalType":"uint160"}],"outputs":[],"stateMutability":"nonpayable"},{"type":"function","name":"liquidity","inputs":[],"outputs":[{"name":"","type":"uint128","internalType":"uint128"}],"stateMutability":"view"},{"type":"function","name":"mint","inputs":[{"name":"recipient","type":"address","internalType":"address"},{"name":"tickLower","type":"int24","internalType":"int24"},{"name":"tickUpper","type":"int24","internalType":"int24"},{"name":"amount","type":"uint128","internalType":"uint128"}],"outputs":[{"name":"amount0","type":"uint256","internalType":"uint256"},{"name":"amount1","type":"uint256","internalType":"uint256"}],"stateMutability":"nonpayable"},{"type":"function","name":"positions","inputs":[{"name":"","type":"bytes32","internalType":"bytes32"}],"outputs":[{"name":"liquidity","type":"uint128","internalType":"uint128"},{"name":"feeGrowthInside0LastX128","type":"uint256","internalType":"uint256"},{"name":"feeGrowthInside1LastX128","type":"uint256","internalType":"uint256"},{"name":"tokensOwed0","type":"uint128","internalType":"uint128"},{"name":"tokensOwed1","type":"uint128","internalType":"uint128"}],"stateMutability":"view"},{"type":"function","name":"slot0","inputs":[],"outputs":[{"name":"sqrtPriceX96","type":"uint160","internalType":"uint160"},{"name":"tick","type":"int24","internalType":"int24"},{"name":"unlocked","type":"bool","internalType":"bool"}],"stateMutability":"view"},{"type":"function","name":"swap","inputs":[{"name":"recipient","type":"address","internalType":"address"},{"name":"zeroForOne","type":"bool","internalType":"bool"},{"name":"amountSpecified","type":"int256","internalType":"int256"},{"name":"sqrtPriceLimitX96","type":"uint160","internalType":"uint160"},{"name":"data","type":"bytes","internalType":"bytes"}],"outputs":[{"name":"amount0","type":"int256","internalType":"int256"},{"name":"amount1","type":"int256","internalType":"int256"}],"stateMutability":"nonpayable"},{"type":"function","name":"tickBitmap","inputs":[{"name":"","type":"int16","internalType":"int16"}],"outputs":[{"name":"","type":"uint256","internalType":"uint256"}],"stateMutability":"view"},{"type":"function","name":"ticks","inputs":[{"name":"","type":"int24","internalType":"int24"}],"outputs":[{"name":"liquidityGross","type":"uint128","internalType":"uint128"},{"name":"liquidityNet","type":"int128","internalType":"int128"},{"name":"feeGrowthOutside0X128","type":"uint256","internalType":"uint256"},{"name":"feeGrowthOutside1X128","type":"uint256","internalType":"uint256"},{"name":"initialize","type":"bool","internalType":"bool"}],"stateMutability":"view"}],"bytecode":{"object":"0x6101206040523480156200001257600080fd5b5060405162005ddf38038062005ddf8339818101604052810190620000389190620002d3565b8373ffffffffffffffffffffffffffffffffffffffff1660808173ffffffffffffffffffffffffffffffffffffffff16815250508273ffffffffffffffffffffffffffffffffffffffff1660a08173ffffffffffffffffffffffffffffffffffffffff16815250508162ffffff1660c08162ffffff16815250508060020b60e08160020b81525050620000d1816200010760201b60201c565b6fffffffffffffffffffffffffffffffff16610100816fffffffffffffffffffffffffffffffff168152505050505050620005c2565b60008082837ffffffffffffffffffffffffffffffffffffffffffffffffffffffffffff27618620001399190620003a3565b62000145919062000417565b9050600083847ffffffffffffffffffffffffffffffffffffffffffffffffffffffffffff2761862000177906200045d565b620001839190620003a3565b6200018f919062000417565b905060006001858484620001a49190620004aa565b620001b09190620003a3565b620001bc91906200050c565b90508062ffffff166fffffffffffffffffffffffffffffffff620001e191906200058a565b9350505050919050565b600080fd5b600073ffffffffffffffffffffffffffffffffffffffff82169050919050565b60006200021d82620001f0565b9050919050565b6200022f8162000210565b81146200023b57600080fd5b50565b6000815190506200024f8162000224565b92915050565b600062ffffff82169050919050565b6200026f8162000255565b81146200027b57600080fd5b50565b6000815190506200028f8162000264565b92915050565b60008160020b9050919050565b620002ad8162000295565b8114620002b957600080fd5b50565b600081519050620002cd81620002a2565b92915050565b60008060008060808587031215620002f057620002ef620001eb565b5b600062000300878288016200023e565b945050602062000313878288016200023e565b935050604062000326878288016200027e565b92505060606200033987828801620002bc565b91505092959194509250565b7f4e487b7100000000000000000000000000000000000000000000000000000000600052601260045260246000fd5b7f4e487b7100000000000000000000000000000000000000000000000000000000600052601160045260246000fd5b6000620003b08262000295565b9150620003bd8362000295565b925082620003d057620003cf62000345565b5b600160000383147fffffffffffffffffffffffffffffffffffffffffffffffffffffffffff800000831416156200040c576200040b62000374565b5b828205905092915050565b6000620004248262000295565b9150620004318362000295565b9250828202620004418162000295565b915080821462000456576200045562000374565b5b5092915050565b60006200046a8262000295565b91507fffffffffffffffffffffffffffffffffffffffffffffffffffffffffff80000082036200049f576200049e62000374565b5b816000039050919050565b6000620004b78262000295565b9150620004c48362000295565b92508282039050627fffff81137fffffffffffffffffffffffffffffffffffffffffffffffffffffffffff8000008212171562000506576200050562000374565b5b92915050565b6000620005198262000295565b9150620005268362000295565b925082820190507fffffffffffffffffffffffffffffffffffffffffffffffffffffffffff8000008112627fffff8213171562000568576200056762000374565b5b92915050565b60006fffffffffffffffffffffffffffffffff82169050919050565b600062000597826200056e565b9150620005a4836200056e565b925082620005b757620005b662000345565b5b828204905092915050565b60805160a05160c05160e051610100516157766200066960003960008181611161015281816135ea015261362d0152600081816107480152818161193b0152818161367001526136ad0152600081816109500152611661015260008181610e7101528181611071015281816114f601528181611b6f0152611e06015260008181610f1901528181610fc9015281816113d60152818161195f0152611ac401526157766000f3fe608060405234801561001057600080fd5b506004361061010b5760003560e01c806365436609116100a2578063b8cca34e11610071578063b8cca34e146102db578063f30583991461030c578063f30dba931461032a578063f637731d1461035e578063fccd45021461037a5761010b565b80636543660914610250578063a34123a71461026e578063a6bedd831461029f578063b8726ceb146102bd5761010b565b806346141319116100de578063461413191461019d5780634f1eb3d8146101bb578063514ea4bf146101ec5780635339c296146102205761010b565b8063128acb08146101105780631a686502146101415780631e7d59621461015f5780633850c7bd1461017d575b600080fd5b61012a600480360381019061012591906144ae565b610398565b604051610138929190614557565b60405180910390f35b61014961113f565b60405161015691906145ab565b60405180910390f35b61016761115f565b60405161017491906145ab565b60405180910390f35b610185611183565b60405161019493929190614600565b60405180910390f35b6101a56111d5565b6040516101b29190614650565b60405180910390f35b6101d560048036038101906101d091906146c3565b6111db565b6040516101e392919061473e565b60405180910390f35b6102066004803603810190610201919061479d565b6115bd565b6040516102179594939291906147ca565b60405180910390f35b61023a60048036038101906102359190614856565b611647565b6040516102479190614650565b60405180910390f35b61025861165f565b60405161026591906148a1565b60405180910390f35b610288600480360381019061028391906148bc565b611683565b60405161029692919061490f565b60405180910390f35b6102a7611939565b6040516102b49190614938565b60405180910390f35b6102c561195d565b6040516102d29190614962565b60405180910390f35b6102f560048036038101906102f0919061497d565b611981565b60405161030392919061490f565b60405180910390f35b610314611c38565b6040516103219190614650565b60405180910390f35b610344600480360381019061033f91906149e4565b611c3e565b604051610355959493929190614a2d565b60405180910390f35b61037860048036038101906103739190614a80565b611caa565b005b610382611e04565b60405161038f9190614962565b60405180910390f35b600080600360000160179054906101000a900460ff166103ed576040517f08c379a00000000000000000000000000000000000000000000000000000000081526004016103e490614b0a565b60405180910390fd5b6000600360000160176101000a81548160ff0219169083151502179055506000860361041857600080fd5b600060036040518060600160405290816000820160009054906101000a900473ffffffffffffffffffffffffffffffffffffffff1673ffffffffffffffffffffffffffffffffffffffff1673ffffffffffffffffffffffffffffffffffffffff1681526020016000820160149054906101000a900460020b60020b60020b81526020016000820160179054906101000a900460ff16151515158152505090508761053f57806000015173ffffffffffffffffffffffffffffffffffffffff168673ffffffffffffffffffffffffffffffffffffffff1611801561053a575073fffd8963efd1fc6a506488495d951d5263988d2673ffffffffffffffffffffffffffffffffffffffff168673ffffffffffffffffffffffffffffffffffffffff16105b6105af565b806000015173ffffffffffffffffffffffffffffffffffffffff168673ffffffffffffffffffffffffffffffffffffffff161080156105ae57506401000276a373ffffffffffffffffffffffffffffffffffffffff168673ffffffffffffffffffffffffffffffffffffffff16115b5b6105ee576040517f08c379a00000000000000000000000000000000000000000000000000000000081526004016105e590614b76565b60405180910390fd5b6000604051806020016040528060008054906101000a90046fffffffffffffffffffffffffffffffff166fffffffffffffffffffffffffffffffff1681525090506000808913905060006040518060c001604052808b815260200160008152602001856000015173ffffffffffffffffffffffffffffffffffffffff168152602001856020015160020b81526020018c61068a5760025461068e565b6001545b815260200184600001516fffffffffffffffffffffffffffffffff1681525090505b60008160000151141580156106f557508873ffffffffffffffffffffffffffffffffffffffff16816040015173ffffffffffffffffffffffffffffffffffffffff1614155b15610cbb576107026142d9565b8160400151816000019073ffffffffffffffffffffffffffffffffffffffff16908173ffffffffffffffffffffffffffffffffffffffff168152505061077a82606001517f00000000000000000000000000000000000000000000000000000000000000008e6005611e28909392919063ffffffff16565b826020018360400182151515158152508260020b60020b81525050507ffffffffffffffffffffffffffffffffffffffffffffffffffffffffffff2761860020b816020015160020b12156107ff577ffffffffffffffffffffffffffffffffffffffffffffffffffffffffffff27618816020019060020b908160020b81525050610877565b7ffffffffffffffffffffffffffffffffffffffffffffffffffffffffffff2761861082990614bc5565b60020b816020015160020b1315610876577ffffffffffffffffffffffffffffffffffffffffffffffffffffffffffff2761861086490614bc5565b816020019060020b908160020b815250505b5b6108848160200151611fff565b816060019073ffffffffffffffffffffffffffffffffffffffff16908173ffffffffffffffffffffffffffffffffffffffff168152505061097482604001518d610900578b73ffffffffffffffffffffffffffffffffffffffff16836060015173ffffffffffffffffffffffffffffffffffffffff1611610934565b8b73ffffffffffffffffffffffffffffffffffffffff16836060015173ffffffffffffffffffffffffffffffffffffffff16105b610942578260600151610944565b8b5b8460a0015185600001517f00000000000000000000000000000000000000000000000000000000000000006124ca565b85604001856080018660a0018760c0018481525084815250848152508473ffffffffffffffffffffffffffffffffffffffff1673ffffffffffffffffffffffffffffffffffffffff16815250505050508215610a28576109e68160c0015182608001516109e19190614c0d565b612759565b826000018181516109f79190614c41565b91508181525050610a0b8160a00151612759565b82602001818151610a1c9190614c41565b91508181525050610a82565b610a448160c001518260800151610a3f9190614c0d565b612759565b82602001818151610a559190614c84565b91508181525050610a698160a00151612759565b82600001818151610a7a9190614c84565b915081815250505b60008260a001516fffffffffffffffffffffffffffffffff161115610af057610ad78160c001517001000000000000000000000000000000008460a001516fffffffffffffffffffffffffffffffff16612790565b82608001818151610ae89190614c0d565b915081815250505b806060015173ffffffffffffffffffffffffffffffffffffffff16826040015173ffffffffffffffffffffffffffffffffffffffff1603610c5a57806040015115610c23576000610b7782602001518e610b4c57600154610b52565b84608001515b8f610b61578560800151610b65565b6002545b6004612869909392919063ffffffff16565b90508c15610b8c5780610b8990614cc8565b90505b60008060009054906101000a90046fffffffffffffffffffffffffffffffff166fffffffffffffffffffffffffffffffff1610610bd857808360a00151610bd39190614d10565b610bf2565b80610be290614cc8565b8360a00151610bf19190614d54565b5b8360a001906fffffffffffffffffffffffffffffffff1690816fffffffffffffffffffffffffffffffff1681525050505b8b610c32578060200151610c44565b60018160200151610c439190614d98565b5b826060019060020b908160020b81525050610cb5565b806000015173ffffffffffffffffffffffffffffffffffffffff16826040015173ffffffffffffffffffffffffffffffffffffffff1614610cb457610ca282604001516128c1565b826060019060020b908160020b815250505b5b506106b0565b836020015160020b816060015160020b14610d4e578060400151816060015160036000016000600360000160148491906101000a81548162ffffff021916908360020b62ffffff1602179055508391906101000a81548173ffffffffffffffffffffffffffffffffffffffff021916908373ffffffffffffffffffffffffffffffffffffffff1602179055505050610d8b565b8060400151846000019073ffffffffffffffffffffffffffffffffffffffff16908173ffffffffffffffffffffffffffffffffffffffff16815250505b8060a001516fffffffffffffffffffffffffffffffff1683600001516fffffffffffffffffffffffffffffffff1614610dfb578060a001516000806101000a8154816fffffffffffffffffffffffffffffffff02191690836fffffffffffffffffffffffffffffffff1602179055505b8a15610e11578060800151600181905550610e1d565b80608001516002819055505b8115158b151514610e4257806020015181600001518b610e3d9190614c41565b610e58565b80600001518a610e529190614c41565b81602001515b80965081975050508a15610fbe576000851215610fb9577f000000000000000000000000000000000000000000000000000000000000000073ffffffffffffffffffffffffffffffffffffffff1663a9059cbb8d87610eb690614df3565b6040518363ffffffff1660e01b8152600401610ed3929190614e3b565b6020604051808303816000875af1158015610ef2573d6000803e3d6000fd5b505050506040513d601f19601f82011682018060405250810190610f169190614e79565b507f000000000000000000000000000000000000000000000000000000000000000073ffffffffffffffffffffffffffffffffffffffff166323b872dd338e896040518463ffffffff1660e01b8152600401610f7493929190614ea6565b6020604051808303816000875af1158015610f93573d6000803e3d6000fd5b505050506040513d601f19601f82011682018060405250810190610fb79190614e79565b505b611112565b6000861215611111577f000000000000000000000000000000000000000000000000000000000000000073ffffffffffffffffffffffffffffffffffffffff1663a9059cbb8d8861100e90614df3565b6040518363ffffffff1660e01b815260040161102b929190614e3b565b6020604051808303816000875af115801561104a573d6000803e3d6000fd5b505050506040513d601f19601f8201168201806040525081019061106e9190614e79565b507f000000000000000000000000000000000000000000000000000000000000000073ffffffffffffffffffffffffffffffffffffffff166323b872dd338e886040518463ffffffff1660e01b81526004016110cc93929190614ea6565b6020604051808303816000875af11580156110eb573d6000803e3d6000fd5b505050506040513d601f19601f8201168201806040525081019061110f9190614e79565b505b5b505050506001600360000160176101000a81548160ff021916908315150217905550965096945050505050565b60008054906101000a90046fffffffffffffffffffffffffffffffff1681565b7f000000000000000000000000000000000000000000000000000000000000000081565b60038060000160009054906101000a900473ffffffffffffffffffffffffffffffffffffffff16908060000160149054906101000a900460020b908060000160179054906101000a900460ff16905083565b60025481565b600080600360000160179054906101000a900460ff16611230576040517f08c379a000000000000000000000000000000000000000000000000000000000815260040161122790614b0a565b60405180910390fd5b6000600360000160176101000a81548160ff02191690831515021790555060006112683388886006612cc0909392919063ffffffff16565b90508060030160009054906101000a90046fffffffffffffffffffffffffffffffff166fffffffffffffffffffffffffffffffff16856fffffffffffffffffffffffffffffffff16116112bb57846112dd565b8060030160009054906101000a90046fffffffffffffffffffffffffffffffff165b92508060030160109054906101000a90046fffffffffffffffffffffffffffffffff166fffffffffffffffffffffffffffffffff16846fffffffffffffffffffffffffffffffff16116113305783611352565b8060030160109054906101000a90046fffffffffffffffffffffffffffffffff165b92506000836fffffffffffffffffffffffffffffffff16111561147457828160030160008282829054906101000a90046fffffffffffffffffffffffffffffffff1661139e9190614d54565b92506101000a8154816fffffffffffffffffffffffffffffffff02191690836fffffffffffffffffffffffffffffffff1602179055507f000000000000000000000000000000000000000000000000000000000000000073ffffffffffffffffffffffffffffffffffffffff1663a9059cbb89856040518363ffffffff1660e01b815260040161142f929190614f18565b6020604051808303816000875af115801561144e573d6000803e3d6000fd5b505050506040513d601f19601f820116820180604052508101906114729190614e79565b505b6000826fffffffffffffffffffffffffffffffff16111561159457818160030160108282829054906101000a90046fffffffffffffffffffffffffffffffff166114be9190614d54565b92506101000a8154816fffffffffffffffffffffffffffffffff02191690836fffffffffffffffffffffffffffffffff1602179055507f000000000000000000000000000000000000000000000000000000000000000073ffffffffffffffffffffffffffffffffffffffff1663a9059cbb89846040518363ffffffff1660e01b815260040161154f929190614f18565b6020604051808303816000875af115801561156e573d6000803e3d6000fd5b505050506040513d601f19601f820116820180604052508101906115929190614e79565b505b506001600360000160176101000a81548160ff0219169083151502179055509550959350505050565b60066020528060005260406000206000915090508060000160009054906101000a90046fffffffffffffffffffffffffffffffff16908060010154908060020154908060030160009054906101000a90046fffffffffffffffffffffffffffffffff16908060030160109054906101000a90046fffffffffffffffffffffffffffffffff16905085565b60056020528060005260406000206000915090505481565b7f000000000000000000000000000000000000000000000000000000000000000081565b600080600360000160179054906101000a900460ff166116d8576040517f08c379a00000000000000000000000000000000000000000000000000000000081526004016116cf90614b0a565b60405180910390fd5b6000600360000160176101000a81548160ff021916908315150217905550600080600061176660405180608001604052803373ffffffffffffffffffffffffffffffffffffffff1681526020018a60020b81526020018960020b8152602001611752896fffffffffffffffffffffffffffffffff16612d08565b61175b90614cc8565b600f0b815250612d21565b925092506040518060a00160405290816000820160009054906101000a90046fffffffffffffffffffffffffffffffff166fffffffffffffffffffffffffffffffff166fffffffffffffffffffffffffffffffff16815260200160018201548152602001600282015481526020016003820160009054906101000a90046fffffffffffffffffffffffffffffffff166fffffffffffffffffffffffffffffffff166fffffffffffffffffffffffffffffffff1681526020016003820160109054906101000a90046fffffffffffffffffffffffffffffffff166fffffffffffffffffffffffffffffffff166fffffffffffffffffffffffffffffffff168152505092508161187390614df3565b94508061187f90614df3565b935060008511806118905750600084115b15611910578483606001516118a59190614d10565b8484608001516118b59190614d10565b8460600185608001826fffffffffffffffffffffffffffffffff166fffffffffffffffffffffffffffffffff16815250826fffffffffffffffffffffffffffffffff166fffffffffffffffffffffffffffffffff1681525050505b5050506001600360000160176101000a81548160ff021916908315150217905550935093915050565b7f000000000000000000000000000000000000000000000000000000000000000081565b7f000000000000000000000000000000000000000000000000000000000000000081565b600080600360000160179054906101000a900460ff166119d6576040517f08c379a00000000000000000000000000000000000000000000000000000000081526004016119cd90614b0a565b60405180910390fd5b6000600360000160176101000a81548160ff0219169083151502179055506000836fffffffffffffffffffffffffffffffff1611611a49576040517f08c379a0000000000000000000000000000000000000000000000000000000008152600401611a4090614f8d565b60405180910390fd5b600080611aae60405180608001604052808a73ffffffffffffffffffffffffffffffffffffffff1681526020018960020b81526020018860020b8152602001611aa3886fffffffffffffffffffffffffffffffff16612d08565b600f0b815250612d21565b92509250508193508092506000841115611b64577f000000000000000000000000000000000000000000000000000000000000000073ffffffffffffffffffffffffffffffffffffffff166323b872dd3330876040518463ffffffff1660e01b8152600401611b1f93929190614ea6565b6020604051808303816000875af1158015611b3e573d6000803e3d6000fd5b505050506040513d601f19601f82011682018060405250810190611b629190614e79565b505b6000831115611c0f577f000000000000000000000000000000000000000000000000000000000000000073ffffffffffffffffffffffffffffffffffffffff166323b872dd3330876040518463ffffffff1660e01b8152600401611bca93929190614ea6565b6020604051808303816000875af1158015611be9573d6000803e3d6000fd5b505050506040513d601f19601f82011682018060405250810190611c0d9190614e79565b505b50506001600360000160176101000a81548160ff02191690831515021790555094509492505050565b60015481565b60046020528060005260406000206000915090508060000160009054906101000a90046fffffffffffffffffffffffffffffffff16908060000160109054906101000a9004600f0b908060010154908060020154908060030160009054906101000a900460ff16905085565b6000600360000160009054906101000a900473ffffffffffffffffffffffffffffffffffffffff1673ffffffffffffffffffffffffffffffffffffffff1614611d28576040517f08c379a0000000000000000000000000000000000000000000000000000000008152600401611d1f90614ff9565b60405180910390fd5b6000611d33826128c1565b905060405180606001604052808373ffffffffffffffffffffffffffffffffffffffff1681526020018260020b815260200160011515815250600360008201518160000160006101000a81548173ffffffffffffffffffffffffffffffffffffffff021916908373ffffffffffffffffffffffffffffffffffffffff16021790555060208201518160000160146101000a81548162ffffff021916908360020b62ffffff16021790555060408201518160000160176101000a81548160ff0219169083151502179055509050505050565b7f000000000000000000000000000000000000000000000000000000000000000081565b60008060008486611e399190615048565b905060008660020b128015611e5d575060008587611e5791906150b2565b60020b14155b15611e71578080611e6d906150e3565b9150505b8315611f2957600080611e8383612f8b565b9150915060008160ff166001901b60018360ff166001901b611ea5919061512b565b611eaf9190614c0d565b90506000818b60008660010b60010b8152602001908152602001600020541690506000811415955085611ef0578260ff1685611eeb9190614d98565b611f1e565b88611efa82612fad565b84611f05919061516c565b60ff1686611f139190614d98565b611f1d91906151a1565b5b965050505050611ff5565b600080611f3583612f8b565b91509150600060018260ff166001901b611f4f919061512b565b1990506000818b60008660010b60010b8152602001908152602001600020541690506000811415955085611fb457888360ff611f8b919061516c565b60ff16600187611f9b9190614d98565b611fa591906151de565b611faf91906151a1565b611fee565b8883611fbf83613088565b611fc9919061516c565b60ff16600187611fd991906151de565b611fe391906151de565b611fed91906151a1565b5b9650505050505b5094509492505050565b60008060008360020b12612016578260020b612024565b8260020b61202390614df3565b5b90507ffffffffffffffffffffffffffffffffffffffffffffffffffffffffffff2761861205090614bc5565b60020b811115612095576040517f08c379a000000000000000000000000000000000000000000000000000000000815260040161208c90615285565b60405180910390fd5b60008060018316036120b8577001000000000000000000000000000000006120ca565b6ffffcb933bd6fad37aa2d162d1a5940015b70ffffffffffffffffffffffffffffffffff1690506000600283161461210d5760806ffff97272373d413259a46990580e213a8261210891906152a5565b901c90505b6000600483161461213b5760806ffff2e50f5f656932ef12357cf3c7fdcc8261213691906152a5565b901c90505b600060088316146121695760806fffe5caca7e10e4e61c3624eaa0941cd08261216491906152a5565b901c90505b600060108316146121975760806fffcb9843d60f6159c9db58835c9266448261219291906152a5565b901c90505b600060208316146121c55760806fff973b41fa98c081472e6896dfb254c0826121c091906152a5565b901c90505b600060408316146121f35760806fff2ea16466c96a3843ec78b326b52861826121ee91906152a5565b901c90505b600060808316146122215760806ffe5dee046a99a2a811c461f1969c30538261221c91906152a5565b901c90505b60006101008316146122505760806ffcbe86c7900a88aedcffc83b479aa3a48261224b91906152a5565b901c90505b600061020083161461227f5760806ff987a7253ac413176f2b074cf7815e548261227a91906152a5565b901c90505b60006104008316146122ae5760806ff3392b0822b70005940c7a398e4b70f3826122a991906152a5565b901c90505b60006108008316146122dd5760806fe7159475a2c29b7443b29c7fa6e889d9826122d891906152a5565b901c90505b600061100083161461230c5760806fd097f3bdfd2022b8845ad8f792aa58258261230791906152a5565b901c90505b600061200083161461233b5760806fa9f746462d870fdf8a65dc1f90e061e58261233691906152a5565b901c90505b600061400083161461236a5760806f70d869a156d2a1b890bb3df62baf32f78261236591906152a5565b901c90505b60006180008316146123995760806f31be135f97d08fd981231505542fcfa68261239491906152a5565b901c90505b6000620100008316146123c95760806f09aa508b5b7a84e1c677de54f3e99bc9826123c491906152a5565b901c90505b6000620200008316146123f85760806e5d6af8dedb81196699c329225ee604826123f391906152a5565b901c90505b6000620400008316146124265760806d2216e584f5fa1ea926041bedfe988261242191906152a5565b901c90505b6000620800008316146124525760806b048a170391f7dc42444e8fa28261244d91906152a5565b901c90505b60008460020b131561248d57807fffffffffffffffffffffffffffffffffffffffffffffffffffffffffffffffff61248a91906152e7565b90505b6000640100000000826124a09190615318565b146124ac5760016124af565b60005b60ff16602082901c6124c19190614c0d565b92505050919050565b60008060008060008873ffffffffffffffffffffffffffffffffffffffff168a73ffffffffffffffffffffffffffffffffffffffff1610159050600080881215905080156125825760006125358989620f42406125279190615349565b62ffffff16620f4240612790565b90508261254e576125498c8c8c60016131af565b61255c565b61255b8b8d8c600161329b565b5b955085811061256d578a965061257c565b6125798c8b83866133d8565b96505b506125da565b81612599576125948b8b8b600061329b565b6125a7565b6125a68a8c8b60006131af565b5b935083886125b490614df3565b106125c1578995506125d9565b6125d68b8a8a6125d090614df3565b8561344a565b95505b5b60008673ffffffffffffffffffffffffffffffffffffffff168b73ffffffffffffffffffffffffffffffffffffffff1614905082156126615780801561261d5750815b6126335761262e878d8c600161329b565b612635565b855b9550808015612642575081155b61265857612653878d8c60016131af565b61265a565b845b94506126ab565b80801561266b5750815b6126815761267c8c888c600161329b565b612683565b855b9550808015612690575081155b6126a6576126a18c888c60016131af565b6126a8565b845b94505b811580156126c15750886126be90614df3565b85115b156126d357886126d090614df3565b94505b81801561270c57508a73ffffffffffffffffffffffffffffffffffffffff168773ffffffffffffffffffffffffffffffffffffffff1614155b1561272457858961271d919061512b565b935061274a565b612747868962ffffff168a620f424061273d9190615349565b62ffffff166134bc565b93505b50505095509550955095915050565b60007f7fffffffffffffffffffffffffffffffffffffffffffffffffffffffffffffff82111561278857600080fd5b819050919050565b60008060008019858709858702925082811083820303915050600081036127ca57600084116127be57600080fd5b83820492505050612862565b8084116127d657600080fd5b600084868809905082811182039150808303925060008586600003169050808604955080840493506001818260000304019050808302841793506000600287600302189050808702600203810290508087026002038102905080870260020381029050808702600203810290508087026002038102905080870260020381029050808502955050505050505b9392505050565b6000808560008660020b60020b815260200190815260200160002090508060010154840381600101819055508060020154830381600201819055508060000160109054906101000a9004600f0b915050949350505050565b60006401000276a373ffffffffffffffffffffffffffffffffffffffff168273ffffffffffffffffffffffffffffffffffffffff1610158015612943575073fffd8963efd1fc6a506488495d951d5263988d2673ffffffffffffffffffffffffffffffffffffffff168273ffffffffffffffffffffffffffffffffffffffff16105b612982576040517f08c379a0000000000000000000000000000000000000000000000000000000008152600401612979906153cc565b60405180910390fd5b600060208373ffffffffffffffffffffffffffffffffffffffff16901b9050600081905060006fffffffffffffffffffffffffffffffff821160071b808217915082811c92505067ffffffffffffffff821160061b808217915082811c92505063ffffffff821160051b808217915082811c92505061ffff821160041b808217915082811c92505060ff821160031b808217915082811c925050600f821160021b808217915082811c9250506003821160011b808217915082811c9250506001821180821791505060808110612a6957607f81612a5f919061512b565b83901c9150612a7c565b80607f612a76919061512b565b83901b91505b60006040608083612a8d9190614c41565b901b9050828302607f1c92508260801c80603f1b8217915083811c935050828302607f1c92508260801c80603e1b8217915083811c935050828302607f1c92508260801c80603d1b8217915083811c935050828302607f1c92508260801c80603c1b8217915083811c935050828302607f1c92508260801c80603b1b8217915083811c935050828302607f1c92508260801c80603a1b8217915083811c935050828302607f1c92508260801c8060391b8217915083811c935050828302607f1c92508260801c8060381b8217915083811c935050828302607f1c92508260801c8060371b8217915083811c935050828302607f1c92508260801c8060361b8217915083811c935050828302607f1c92508260801c8060351b8217915083811c935050828302607f1c92508260801c8060341b8217915083811c935050828302607f1c92508260801c8060331b8217915083811c935050828302607f1c92508260801c8060321b82179150506000693627a301d71055774c8582612c1091906153ec565b9050600060806f028f6481ab7f045a5af012a19d003aaa83612c329190614c41565b901d9050600060806fdb2df09e81959a81455e260799a0632f84612c569190614c84565b901d90508060020b8260020b14612cb0578873ffffffffffffffffffffffffffffffffffffffff16612c8782611fff565b73ffffffffffffffffffffffffffffffffffffffff161115612ca95781612cab565b805b612cb2565b815b975050505050505050919050565b6000846000858585604051602001612cda939291906154e2565b6040516020818303038152906040528051906020012081526020019081526020016000209050949350505050565b60008182915081600f0b14612d1c57600080fd5b919050565b6000806000612d3884602001518560400151613521565b600060036040518060600160405290816000820160009054906101000a900473ffffffffffffffffffffffffffffffffffffffff1673ffffffffffffffffffffffffffffffffffffffff1673ffffffffffffffffffffffffffffffffffffffff1681526020016000820160149054906101000a900460020b60020b60020b81526020016000820160179054906101000a900460ff1615151515815250509050612df8856000015186602001518760400151886060015185602001516135a6565b935060008560600151600f0b14612f8357846020015160020b816020015160020b1215612e4d57612e46612e2f8660200151611fff565b612e3c8760400151611fff565b876060015161376b565b9250612f82565b846040015160020b816020015160020b1215612f5757612e828160000151612e788760400151611fff565b876060015161376b565b9250612ea3612e948660200151611fff565b826000015187606001516137b6565b915060008560600151600f0b12612ee557846060015160008054906101000a90046fffffffffffffffffffffffffffffffff16612ee09190614d54565b612f1b565b8460600151612ef390614cc8565b60008054906101000a90046fffffffffffffffffffffffffffffffff16612f1a9190614d54565b5b6000806101000a8154816fffffffffffffffffffffffffffffffff02191690836fffffffffffffffffffffffffffffffff160217905550612f81565b612f7e612f678660200151611fff565b612f748760400151611fff565b87606001516137b6565b91505b5b5b509193909250565b60008060088360020b901d915061010083612fa6919061551f565b9050915091565b6000808211612fbb57600080fd5b7001000000000000000000000000000000008210612fe157608082901c91506080810190505b680100000000000000008210612fff57604082901c91506040810190505b640100000000821061301957602082901c91506020810190505b62010000821061303157601082901c91506010810190505b610100821061304857600882901c91506008810190505b6010821061305e57600482901c91506004810190505b6004821061307457600282901c91506002810190505b60028210613083576001810190505b919050565b600080821161309657600080fd5b60ff905060006fffffffffffffffffffffffffffffffff8016831611156130c2576080810390506130ca565b608082901c91505b600067ffffffffffffffff8016831611156130ea576040810390506130f2565b604082901c91505b600063ffffffff80168316111561310e57602081039050613116565b602082901c91505b600061ffff80168316111561313057601081039050613138565b601082901c91505b600060ff80168316111561315157600881039050613159565b600882901c91505b6000600f8316111561317057600481039050613178565b600482901c91505b600060038316111561318f57600281039050613197565b600282901c91505b60006001831611156131aa576001810390505b919050565b60008373ffffffffffffffffffffffffffffffffffffffff168573ffffffffffffffffffffffffffffffffffffffff1611156131f057838580955081965050505b8161324557613240836fffffffffffffffffffffffffffffffff1686866132179190615550565b73ffffffffffffffffffffffffffffffffffffffff166c01000000000000000000000000612790565b613291565b613290836fffffffffffffffffffffffffffffffff1686866132679190615550565b73ffffffffffffffffffffffffffffffffffffffff166c010000000000000000000000006134bc565b5b9050949350505050565b60008373ffffffffffffffffffffffffffffffffffffffff168573ffffffffffffffffffffffffffffffffffffffff1611156132dc57838580955081965050505b6000606060ff16846fffffffffffffffffffffffffffffffff16901b9050600086860373ffffffffffffffffffffffffffffffffffffffff16905060008773ffffffffffffffffffffffffffffffffffffffff161161333a57600080fd5b8361338b578673ffffffffffffffffffffffffffffffffffffffff1661337783838973ffffffffffffffffffffffffffffffffffffffff16612790565b8161338557613384615019565b5b046133cc565b6133cb6133af83838973ffffffffffffffffffffffffffffffffffffffff166134bc565b8873ffffffffffffffffffffffffffffffffffffffff16613801565b5b92505050949350505050565b6000808573ffffffffffffffffffffffffffffffffffffffff16116133fc57600080fd5b6000846fffffffffffffffffffffffffffffffff161161341b57600080fd5b816134325761342d8585856001613814565b613440565b61343f858585600161398a565b5b9050949350505050565b6000808573ffffffffffffffffffffffffffffffffffffffff161161346e57600080fd5b6000846fffffffffffffffffffffffffffffffff161161348d57600080fd5b816134a45761349f858585600061398a565b6134b2565b6134b18585856000613814565b5b9050949350505050565b60006134c9848484612790565b9050600082806134dc576134db615019565b5b848609111561351a577fffffffffffffffffffffffffffffffffffffffffffffffffffffffffffffffff811061351157600080fd5b80806001019150505b9392505050565b8060020b8260020b1261353357600080fd5b7ffffffffffffffffffffffffffffffffffffffffffffffffffffffffffff2761860020b8260020b121561356657600080fd5b7ffffffffffffffffffffffffffffffffffffffffffffffffffffffffffff2761861359090614bc5565b60020b8160020b12156135a257600080fd5b5050565b60006135c08686866006612cc0909392919063ffffffff16565b90506000600154905060006002549050600080600087600f0b146136df5761361f898789878760007f00000000000000000000000000000000000000000000000000000000000000006004613b1b90979695949392919063ffffffff16565b9150613662888789878760017f00000000000000000000000000000000000000000000000000000000000000006004613b1b90979695949392919063ffffffff16565b905081156136a1576136a0897f00000000000000000000000000000000000000000000000000000000000000006005613d7b9092919063ffffffff16565b5b80156136de576136dd887f00000000000000000000000000000000000000000000000000000000000000006005613d7b9092919063ffffffff16565b5b5b6000806136fe8b8b8a89896004613de09095949392919063ffffffff16565b915091506137198983838a613ea7909392919063ffffffff16565b600089600f0b121561375c5783156137405761373f8b600461422490919063ffffffff16565b5b821561375b5761375a8a600461422490919063ffffffff16565b5b5b50505050505095945050505050565b60008082600f0b126137915761378c613787858585600161329b565b612759565b6137ad565b6137a96137a4858585600003600061329b565b612759565b6000035b90509392505050565b60008082600f0b126137dc576137d76137d285858560016131af565b612759565b6137f8565b6137f46137ef85858560000360006131af565b612759565b6000035b90509392505050565b6000808284061182840401905092915050565b600081156138c557600073ffffffffffffffffffffffffffffffffffffffff801684111561386b57613866846c01000000000000000000000000876fffffffffffffffffffffffffffffffff16612790565b613891565b846fffffffffffffffffffffffffffffffff16606060ff1685901b61389091906152e7565b5b90506138bd818773ffffffffffffffffffffffffffffffffffffffff166138b89190614c0d565b6142ad565b915050613982565b600073ffffffffffffffffffffffffffffffffffffffff80168411156139145761390f846c01000000000000000000000000876fffffffffffffffffffffffffffffffff166134bc565b613938565b613937606060ff1685901b866fffffffffffffffffffffffffffffffff16613801565b5b9050808673ffffffffffffffffffffffffffffffffffffffff161161395c57600080fd5b808673ffffffffffffffffffffffffffffffffffffffff1661397e919061512b565b9150505b949350505050565b600080830361399b57849050613b13565b6000606060ff16856fffffffffffffffffffffffffffffffff16901b90508215613a835760008673ffffffffffffffffffffffffffffffffffffffff16858873ffffffffffffffffffffffffffffffffffffffff16870292508281613a0357613a02615019565b5b0403613a445760008183019050828110613a4257613a38838973ffffffffffffffffffffffffffffffffffffffff16836134bc565b9350505050613b13565b505b50613a7b81858873ffffffffffffffffffffffffffffffffffffffff1684613a6c91906152e7565b613a769190614c0d565b613801565b915050613b13565b60008673ffffffffffffffffffffffffffffffffffffffff16858873ffffffffffffffffffffffffffffffffffffffff16870292508281613ac757613ac6615019565b5b04148015613ad457508082115b613add57600080fd5b60008183039050613b0d613b08848a73ffffffffffffffffffffffffffffffffffffffff16846134bc565b6142ad565b93505050505b949350505050565b6000808960008a60020b60020b81526020019081526020016000206040518060a00160405290816000820160009054906101000a90046fffffffffffffffffffffffffffffffff166fffffffffffffffffffffffffffffffff166fffffffffffffffffffffffffffffffff1681526020016000820160109054906101000a9004600f0b600f0b600f0b815260200160018201548152602001600282015481526020016003820160009054906101000a900460ff161515151581525050905060008160000151905060008089600f0b12613bff578882613bfa9190614d10565b613c15565b88613c0990614cc8565b82613c149190614d54565b5b9050846fffffffffffffffffffffffffffffffff16816fffffffffffffffffffffffffffffffff161115613c7e576040517f08c379a0000000000000000000000000000000000000000000000000000000008152600401613c75906155e4565b60405180910390fd5b6000826fffffffffffffffffffffffffffffffff161415156000826fffffffffffffffffffffffffffffffff16141515141593506000826fffffffffffffffffffffffffffffffff1603613d00578960020b8b60020b13613cee5787836040018181525050868360600181815250505b60018360800190151590811515815250505b8083600001906fffffffffffffffffffffffffffffffff1690816fffffffffffffffffffffffffffffffff168152505085613d4a57888360200151613d459190615604565b613d5b565b888360200151613d5a919061566c565b5b8360200190600f0b9081600f0b8152505050505098975050505050505050565b60008183613d8991906150b2565b60020b14613d9657600080fd5b600080613da284612f8b565b9150915060008160ff166001901b9050808660008560010b60010b815260200190815260200160002060008282541892505081905550505050505050565b60008060008860008960020b60020b8152602001908152602001600020905060008960008960020b60020b815260200190815260200160002090506000808860020b8b60020b13613e3e578360010154915083600201549050613e51565b8360010154880391508360020154870390505b6000808b60020b8b60020b1215613e75578460010154915084600201549050613e88565b84600101548a0391508460020154890390505b81848b0303975080838a03039650505050505050965096945050505050565b6000846040518060a00160405290816000820160009054906101000a90046fffffffffffffffffffffffffffffffff166fffffffffffffffffffffffffffffffff166fffffffffffffffffffffffffffffffff16815260200160018201548152602001600282015481526020016003820160009054906101000a90046fffffffffffffffffffffffffffffffff166fffffffffffffffffffffffffffffffff166fffffffffffffffffffffffffffffffff1681526020016003820160109054906101000a90046fffffffffffffffffffffffffffffffff166fffffffffffffffffffffffffffffffff166fffffffffffffffffffffffffffffffff16815250509050600084600f0b0361400e57600081600001516fffffffffffffffffffffffffffffffff161161400d576040517f08c379a000000000000000000000000000000000000000000000000000000000815260040161400490615720565b60405180910390fd5b5b6000614051826020015185614023919061512b565b83600001516fffffffffffffffffffffffffffffffff16700100000000000000000000000000000000612790565b90506000614096836040015185614068919061512b565b84600001516fffffffffffffffffffffffffffffffff16700100000000000000000000000000000000612790565b9050600086600f0b1461411857600086600f0b126140c3578583600001516140be9190614d10565b6140dd565b856140cd90614cc8565b83600001516140dc9190614d54565b5b8760000160006101000a8154816fffffffffffffffffffffffffffffffff02191690836fffffffffffffffffffffffffffffffff1602179055505b6000826fffffffffffffffffffffffffffffffff16118061414b57506000816fffffffffffffffffffffffffffffffff16115b1561421b57818760030160008282829054906101000a90046fffffffffffffffffffffffffffffffff1661417f9190614d10565b92506101000a8154816fffffffffffffffffffffffffffffffff02191690836fffffffffffffffffffffffffffffffff160217905550808760030160108282829054906101000a90046fffffffffffffffffffffffffffffffff166141e49190614d10565b92506101000a8154816fffffffffffffffffffffffffffffffff02191690836fffffffffffffffffffffffffffffffff1602179055505b50505050505050565b8160008260020b60020b8152602001908152602001600020600080820160006101000a8154906fffffffffffffffffffffffffffffffff02191690556000820160106101000a8154906fffffffffffffffffffffffffffffffff0219169055600182016000905560028201600090556003820160006101000a81549060ff021916905550505050565b6000818291508173ffffffffffffffffffffffffffffffffffffffff16146142d457600080fd5b919050565b6040518060e00160405280600073ffffffffffffffffffffffffffffffffffffffff168152602001600060020b8152602001600015158152602001600073ffffffffffffffffffffffffffffffffffffffff1681526020016000815260200160008152602001600081525090565b600080fd5b600080fd5b600073ffffffffffffffffffffffffffffffffffffffff82169050919050565b600061437c82614351565b9050919050565b61438c81614371565b811461439757600080fd5b50565b6000813590506143a981614383565b92915050565b60008115159050919050565b6143c4816143af565b81146143cf57600080fd5b50565b6000813590506143e1816143bb565b92915050565b6000819050919050565b6143fa816143e7565b811461440557600080fd5b50565b600081359050614417816143f1565b92915050565b61442681614351565b811461443157600080fd5b50565b6000813590506144438161441d565b92915050565b600080fd5b600080fd5b600080fd5b60008083601f84011261446e5761446d614449565b5b8235905067ffffffffffffffff81111561448b5761448a61444e565b5b6020830191508360018202830111156144a7576144a6614453565b5b9250929050565b60008060008060008060a087890312156144cb576144ca614347565b5b60006144d989828a0161439a565b96505060206144ea89828a016143d2565b95505060406144fb89828a01614408565b945050606061450c89828a01614434565b935050608087013567ffffffffffffffff81111561452d5761452c61434c565b5b61453989828a01614458565b92509250509295509295509295565b614551816143e7565b82525050565b600060408201905061456c6000830185614548565b6145796020830184614548565b9392505050565b60006fffffffffffffffffffffffffffffffff82169050919050565b6145a581614580565b82525050565b60006020820190506145c0600083018461459c565b92915050565b6145cf81614351565b82525050565b60008160020b9050919050565b6145eb816145d5565b82525050565b6145fa816143af565b82525050565b600060608201905061461560008301866145c6565b61462260208301856145e2565b61462f60408301846145f1565b949350505050565b6000819050919050565b61464a81614637565b82525050565b60006020820190506146656000830184614641565b92915050565b614674816145d5565b811461467f57600080fd5b50565b6000813590506146918161466b565b92915050565b6146a081614580565b81146146ab57600080fd5b50565b6000813590506146bd81614697565b92915050565b600080600080600060a086880312156146df576146de614347565b5b60006146ed8882890161439a565b95505060206146fe88828901614682565b945050604061470f88828901614682565b9350506060614720888289016146ae565b9250506080614731888289016146ae565b9150509295509295909350565b6000604082019050614753600083018561459c565b614760602083018461459c565b9392505050565b6000819050919050565b61477a81614767565b811461478557600080fd5b50565b60008135905061479781614771565b92915050565b6000602082840312156147b3576147b2614347565b5b60006147c184828501614788565b91505092915050565b600060a0820190506147df600083018861459c565b6147ec6020830187614641565b6147f96040830186614641565b614806606083018561459c565b614813608083018461459c565b9695505050505050565b60008160010b9050919050565b6148338161481d565b811461483e57600080fd5b50565b6000813590506148508161482a565b92915050565b60006020828403121561486c5761486b614347565b5b600061487a84828501614841565b91505092915050565b600062ffffff82169050919050565b61489b81614883565b82525050565b60006020820190506148b66000830184614892565b92915050565b6000806000606084860312156148d5576148d4614347565b5b60006148e386828701614682565b93505060206148f486828701614682565b9250506040614905868287016146ae565b9150509250925092565b60006040820190506149246000830185614641565b6149316020830184614641565b9392505050565b600060208201905061494d60008301846145e2565b92915050565b61495c81614371565b82525050565b60006020820190506149776000830184614953565b92915050565b6000806000806080858703121561499757614996614347565b5b60006149a58782880161439a565b94505060206149b687828801614682565b93505060406149c787828801614682565b92505060606149d8878288016146ae565b91505092959194509250565b6000602082840312156149fa576149f9614347565b5b6000614a0884828501614682565b91505092915050565b600081600f0b9050919050565b614a2781614a11565b82525050565b600060a082019050614a42600083018861459c565b614a4f6020830187614a1e565b614a5c6040830186614641565b614a696060830185614641565b614a7660808301846145f1565b9695505050505050565b600060208284031215614a9657614a95614347565b5b6000614aa484828501614434565b91505092915050565b600082825260208201905092915050565b7f6c6f636b65640000000000000000000000000000000000000000000000000000600082015250565b6000614af4600683614aad565b9150614aff82614abe565b602082019050919050565b60006020820190508181036000830152614b2381614ae7565b9050919050565b7f496e76616c69642073717274207072696365206c696d69740000000000000000600082015250565b6000614b60601883614aad565b9150614b6b82614b2a565b602082019050919050565b60006020820190508181036000830152614b8f81614b53565b9050919050565b7f4e487b7100000000000000000000000000000000000000000000000000000000600052601160045260246000fd5b6000614bd0826145d5565b91507fffffffffffffffffffffffffffffffffffffffffffffffffffffffffff8000008203614c0257614c01614b96565b5b816000039050919050565b6000614c1882614637565b9150614c2383614637565b9250828201905080821115614c3b57614c3a614b96565b5b92915050565b6000614c4c826143e7565b9150614c57836143e7565b9250828203905081811260008412168282136000851215161715614c7e57614c7d614b96565b5b92915050565b6000614c8f826143e7565b9150614c9a836143e7565b925082820190508281121560008312168382126000841215161715614cc257614cc1614b96565b5b92915050565b6000614cd382614a11565b91507fffffffffffffffffffffffffffffffff800000000000000000000000000000008203614d0557614d04614b96565b5b816000039050919050565b6000614d1b82614580565b9150614d2683614580565b925082820190506fffffffffffffffffffffffffffffffff811115614d4e57614d4d614b96565b5b92915050565b6000614d5f82614580565b9150614d6a83614580565b925082820390506fffffffffffffffffffffffffffffffff811115614d9257614d91614b96565b5b92915050565b6000614da3826145d5565b9150614dae836145d5565b92508282039050627fffff81137fffffffffffffffffffffffffffffffffffffffffffffffffffffffffff80000082121715614ded57614dec614b96565b5b92915050565b6000614dfe826143e7565b91507f80000000000000000000000000000000000000000000000000000000000000008203614e3057614e2f614b96565b5b816000039050919050565b6000604082019050614e506000830185614953565b614e5d6020830184614641565b9392505050565b600081519050614e73816143bb565b92915050565b600060208284031215614e8f57614e8e614347565b5b6000614e9d84828501614e64565b91505092915050565b6000606082019050614ebb6000830186614953565b614ec86020830185614953565b614ed56040830184614641565b949350505050565b6000819050919050565b6000614f02614efd614ef884614580565b614edd565b614637565b9050919050565b614f1281614ee7565b82525050565b6000604082019050614f2d6000830185614953565b614f3a6020830184614f09565b9392505050565b7f616d6f756e74206973207a65726f000000000000000000000000000000000000600082015250565b6000614f77600e83614aad565b9150614f8282614f41565b602082019050919050565b60006020820190508181036000830152614fa681614f6a565b9050919050565b7f616c726561647920696e697469616c697a656400000000000000000000000000600082015250565b6000614fe3601383614aad565b9150614fee82614fad565b602082019050919050565b6000602082019050818103600083015261501281614fd6565b9050919050565b7f4e487b7100000000000000000000000000000000000000000000000000000000600052601260045260246000fd5b6000615053826145d5565b915061505e836145d5565b92508261506e5761506d615019565b5b600160000383147fffffffffffffffffffffffffffffffffffffffffffffffffffffffffff800000831416156150a7576150a6614b96565b5b828205905092915050565b60006150bd826145d5565b91506150c8836145d5565b9250826150d8576150d7615019565b5b828207905092915050565b60006150ee826145d5565b91507fffffffffffffffffffffffffffffffffffffffffffffffffffffffffff80000082036151205761511f614b96565b5b600182039050919050565b600061513682614637565b915061514183614637565b925082820390508181111561515957615158614b96565b5b92915050565b600060ff82169050919050565b60006151778261515f565b91506151828361515f565b9250828203905060ff81111561519b5761519a614b96565b5b92915050565b60006151ac826145d5565b91506151b7836145d5565b92508282026151c5816145d5565b91508082146151d7576151d6614b96565b5b5092915050565b60006151e9826145d5565b91506151f4836145d5565b925082820190507fffffffffffffffffffffffffffffffffffffffffffffffffffffffffff8000008112627fffff8213171561523357615232614b96565b5b92915050565b7f5400000000000000000000000000000000000000000000000000000000000000600082015250565b600061526f600183614aad565b915061527a82615239565b602082019050919050565b6000602082019050818103600083015261529e81615262565b9050919050565b60006152b082614637565b91506152bb83614637565b92508282026152c981614637565b915082820484148315176152e0576152df614b96565b5b5092915050565b60006152f282614637565b91506152fd83614637565b92508261530d5761530c615019565b5b828204905092915050565b600061532382614637565b915061532e83614637565b92508261533e5761533d615019565b5b828206905092915050565b600061535482614883565b915061535f83614883565b9250828203905062ffffff81111561537a57615379614b96565b5b92915050565b7f5200000000000000000000000000000000000000000000000000000000000000600082015250565b60006153b6600183614aad565b91506153c182615380565b602082019050919050565b600060208201905081810360008301526153e5816153a9565b9050919050565b60006153f7826143e7565b9150615402836143e7565b9250828202615410816143e7565b91507f8000000000000000000000000000000000000000000000000000000000000000841460008412161561544857615447614b96565b5b828205841483151761545d5761545c614b96565b5b5092915050565b60008160601b9050919050565b600061547c82615464565b9050919050565b600061548e82615471565b9050919050565b6154a66154a182614371565b615483565b82525050565b60008160e81b9050919050565b60006154c4826154ac565b9050919050565b6154dc6154d7826145d5565b6154b9565b82525050565b60006154ee8286615495565b6014820191506154fe82856154cb565b60038201915061550e82846154cb565b600382019150819050949350505050565b600061552a82614883565b915061553583614883565b92508261554557615544615019565b5b828206905092915050565b600061555b82614351565b915061556683614351565b9250828203905073ffffffffffffffffffffffffffffffffffffffff81111561559257615591614b96565b5b92915050565b7f6c697175696469747920697320626967676572207468616e206d617800000000600082015250565b60006155ce601c83614aad565b91506155d982615598565b602082019050919050565b600060208201905081810360008301526155fd816155c1565b9050919050565b600061560f82614a11565b915061561a83614a11565b925082820190507fffffffffffffffffffffffffffffffff8000000000000000000000000000000081126f7fffffffffffffffffffffffffffffff8213171561566657615665614b96565b5b92915050565b600061567782614a11565b915061568283614a11565b925082820390506f7fffffffffffffffffffffffffffffff81137fffffffffffffffffffffffffffffffff80000000000000000000000000000000821217156156ce576156cd614b96565b5b92915050565b7f30206c6971756964697479000000000000000000000000000000000000000000600082015250565b600061570a600b83614aad565b9150615715826156d4565b602082019050919050565b60006020820190508181036000830152615739816156fd565b905091905056fea2646970667358221220fd02d54ce1e082c426468a7e8619bbaf25386ec7a7dfbd0a64648027dc6e69cc64736f6c63430008130033","linkReferences":{}},"methodIdentifiers":{"burn(int24,int24,uint128)":"a34123a7","collect(address,int24,int24,uint128,uint128)":"4f1eb3d8","feeGrowthGlobal0X128()":"f3058399","feeGrowthGlobal1X128()":"46141319","i_fee()":"65436609","i_maxLiquidityPerTick()":"1e7d5962","i_tickSpacing()":"a6bedd83","i_token0()":"b8726ceb","i_token1()":"fccd4502","initialize(uint160)":"f637731d","liquidity()":"1a686502","mint(address,int24,int24,uint128)":"b8cca34e","positions(bytes32)":"514ea4bf","slot0()":"3850c7bd","swap(address,bool,int256,uint160,bytes)":"128acb08","tickBitmap(int16)":"5339c296","ticks(int24)":"f30dba93"},"id":0}