{"abi":[{"type":"constructor","inputs":[{"name":"entranceFee","type":"uint256","internalType":"uint256"},{"name":"interval","type":"uint256","internalType":"uint256"},{"name":"vrfCoordinator","type":"address","internalType":"address"},{"name":"gasLane","type":"bytes32","internalType":"bytes32"},{"name":"subscriptionId","type":"uint64","internalType":"uint64"},{"name":"callbackGasLimit","type":"uint32","internalType":"uint32"}],"stateMutability":"nonpayable"},{"type":"function","name":"checkUpkeep","inputs":[{"name":"","type":"bytes","internalType":"bytes"}],"outputs":[{"name":"upkeepNeeded","type":"bool","internalType":"bool"},{"name":"","type":"bytes","internalType":"bytes"}],"stateMutability":"view"},{"type":"function","name":"enterRaffle","inputs":[],"outputs":[],"stateMutability":"payable"},{"type":"function","name":"getEntranceFee","inputs":[],"outputs":[{"name":"","type":"uint256","internalType":"uint256"}],"stateMutability":"view"},{"type":"function","name":"getLastTimeStamp","inputs":[],"outputs":[{"name":"","type":"uint256","internalType":"uint256"}],"stateMutability":"view"},{"type":"function","name":"getLengthOfPlayers","inputs":[],"outputs":[{"name":"","type":"uint256","internalType":"uint256"}],"stateMutability":"view"},{"type":"function","name":"getPlayer","inputs":[{"name":"indexOfPlayer","type":"uint256","internalType":"uint256"}],"outputs":[{"name":"","type":"address","internalType":"address"}],"stateMutability":"view"},{"type":"function","name":"getRaffleState","inputs":[],"outputs":[{"name":"","type":"uint8","internalType":"enum Raffle.RaffleState"}],"stateMutability":"view"},{"type":"function","name":"getRecentWinner","inputs":[],"outputs":[{"name":"","type":"address","internalType":"address"}],"stateMutability":"view"},{"type":"function","name":"performUpkeep","inputs":[{"name":"","type":"bytes","internalType":"bytes"}],"outputs":[],"stateMutability":"nonpayable"},{"type":"function","name":"rawFulfillRandomWords","inputs":[{"name":"requestId","type":"uint256","internalType":"uint256"},{"name":"randomWords","type":"uint256[]","internalType":"uint256[]"}],"outputs":[],"stateMutability":"nonpayable"},{"type":"event","name":"EnteredRaffle","inputs":[{"name":"player","type":"address","indexed":true,"internalType":"address"}],"anonymous":false},{"type":"event","name":"PickedWinner","inputs":[{"name":"winner","type":"address","indexed":true,"internalType":"address"}],"anonymous":false},{"type":"event","name":"RequestedRaffleWinner","inputs":[{"name":"requestId","type":"uint256","indexed":true,"internalType":"uint256"}],"anonymous":false},{"type":"error","name":"OnlyCoordinatorCanFulfill","inputs":[{"name":"have","type":"address","internalType":"address"},{"name":"want","type":"address","internalType":"address"}]},{"type":"error","name":"Raffle__NotEnoughETH","inputs":[]},{"type":"error","name":"Raffle__NotEnoughPlayers","inputs":[]},{"type":"error","name":"Raffle__NotOpen","inputs":[]},{"type":"error","name":"Raffle__TransferFailed","inputs":[]},{"type":"error","name":"Raffle__UpkeepNotNeeded","inputs":[{"name":"currentBalance","type":"uint256","internalType":"uint256"},{"name":"numPlayers","type":"uint256","internalType":"uint256"},{"name":"raffleState","type":"uint256","internalType":"uint256"}]}],"bytecode":{"object":"0x6101603461010e576001600160401b0390601f610af938819003918201601f1916830191848311848410176101135780849260c09460405283398101031261010e578051602082015160408301519290916001600160a01b0384169081850361010e576060830151926080810151968716870361010e5760a001519463ffffffff8616860361010e5760805260a0526101409283524260015560c05260e05261010092835260ff60a01b1960025416600255610120918252604051916109cf938461012a853960805184610694015260a05184818161052b01526108a0015260c051846103f1015260e051846103620152518361038a015251826103b801525181818161021401526104c10152f35b600080fd5b634e487b7160e01b600052604160045260246000fdfe608060408181526004918236101561001657600080fd5b600090813560e01c90816309bc33a714610889575080630ea3df381461086c578063115cbaf51461082a5780631fe543e3146106125780632cfcc5391461051c5780634585e33b14610294578063473f1ddc1461026b5780636e04ff0d146100ec578063c1c244e8146100c95763e55ae4e81461009257600080fd5b346100c65760203660031901126100c657506100b06020923561094f565b905491519160018060a01b039160031b1c168152f35b80fd5b5090346100e857816003193601126100e8576020906001549051908152f35b5080fd5b50346100c6576020806003193601126100e857833567ffffffffffffffff8111610267573660238201121561026757808501359061012982610933565b9061013686519283610911565b8282523660248483010111610263579183918160248795018483013701015260ff60025460a01c16600281101561025057159360015442039042821161023d575047151590835415159086610212575b508561020a575b5084610202575b509290918051926101a4846108f5565b600384526203078360ec1b85850152815194859315158452828185015284518093850152815b8381106101eb57505060608094508284010152601f80199101168101030190f35b8086018201518782016060015286945081016101ca565b935038610194565b94503861018d565b7f00000000000000000000000000000000000000000000000000000000000000001115955038610186565b634e487b7160e01b845260119052602483fd5b634e487b7160e01b835260218552602483fd5b8480fd5b8280fd5b5090346100e857816003193601126100e85760025490516001600160a01b039091168152602090f35b509134610267576020806003193601126105185767ffffffffffffffff8235818111610514573660238201121561051457808401358281116105105736910160240111610263578484516102e7816108c3565b5260025460ff8160a01c1660028110156104fd5780156001544203904282116104ea57471515895492826104bf575b50816104b5575b816104ad575b506203078360ec1b868951610337816108f5565b6003815201521561048a57505060ff60a01b1916600160a01b1760025583516305d3b1d360e41b81527f0000000000000000000000000000000000000000000000000000000000000000938101939093527f0000000000000000000000000000000000000000000000000000000000000000166024830152600360448301527f000000000000000000000000000000000000000000000000000000000000000063ffffffff16606483015260016084830152808260a481877f00000000000000000000000000000000000000000000000000000000000000006001600160a01b03165af192831561048157508392610453575b50507fcd6e45c8998311cab7e9d4385596cac867e20a0587194b954fa3a731c93ce78b8280a280f35b90809250813d831161047a575b61046a8183610911565b810103126100e85751388061042a565b503d610460565b513d85823e3d90fd5b60649186918847905193632c2193d560e11b855284015260248301526044820152fd5b905038610323565b821515915061031d565b7f00000000000000000000000000000000000000000000000000000000000000001115915038610316565b634e487b7160e01b895260118752602489fd5b634e487b7160e01b875260218552602487fd5b8680fd5b8580fd5b8380fd5b5090816003193601126100e8577f000000000000000000000000000000000000000000000000000000000000000034106106035760ff60025460a01c1660028110156105f0576105e157508054680100000000000000008110156105ce578060016105899201835561094f565b81546001600160a01b0360039290921b91821b1916339182901b179091557f819fbd717c9d0b421352c5116a644ca68ba176960c33f406f08d98a27370ca278280a280f35b506041602492634e487b7160e01b835252fd5b5163050955c760e21b81529050fd5b634e487b7160e01b835260218452602483fd5b51639894879b60e01b81529050fd5b5091903461026757806003193601126102675767ffffffffffffffff6024803582811161051457366023820112156105145780850135928311610818578260051b84519160209461066586840185610911565b8352848301848193830101913683116108145785879101915b83831061080457506001600160a01b03949250507f000000000000000000000000000000000000000000000000000000000000000084169050338190036107e7575051156107d5575186549283156107c45750906106de8388930661094f565b90549060031b1c1691826affffffffffffffffffffff60a81b6002541617600255600190428255828651610711816108c3565b528280557f290decd9548b62a8d60345a988386fc84ba6bc95484008f6362f93160ef3e563908101905b8181106107b85750505080808093818052807fb112587e57bfa970257f3d54fc52859c6300f6bd7a982462c320fed45c2530ed8380a247905af1903d156107b257843d9161078883610933565b9261079586519485610911565b83523d92013e5b156107a5578280f35b5163a1d04b3960e01b8152fd5b5061079c565b9283558792820161073b565b634e487b7160e01b88526012875287fd5b634e487b7160e01b8752603286528287fd5b865163073e64fd60e21b815233818a015280860191909152604490fd5b823581529181019187910161067e565b8980fd5b50634e487b7160e01b85526041845284fd5b5090346100e857816003193601126100e85760ff60025460a01c16905191600282101561085957602083838152f35b634e487b7160e01b815260218452602490fd5b5090346100e857816003193601126100e857602091549051908152f35b9050346100e857816003193601126100e8576020907f00000000000000000000000000000000000000000000000000000000000000008152f35b6020810190811067ffffffffffffffff8211176108df57604052565b634e487b7160e01b600052604160045260246000fd5b6040810190811067ffffffffffffffff8211176108df57604052565b90601f8019910116810190811067ffffffffffffffff8211176108df57604052565b67ffffffffffffffff81116108df57601f01601f191660200190565b906000918254811015610985578280527f290decd9548b62a8d60345a988386fc84ba6bc95484008f6362f93160ef3e563019190565b634e487b7160e01b83526032600452602483fdfea26469706673582212202d1214ea24b20d147ac483d5b4311f78074d4ccf273e0bbc9941d0458d57782f64736f6c63430008130033","linkReferences":{}},"methodIdentifiers":{"checkUpkeep(bytes)":"6e04ff0d","enterRaffle()":"2cfcc539","getEntranceFee()":"09bc33a7","getLastTimeStamp()":"c1c244e8","getLengthOfPlayers()":"0ea3df38","getPlayer(uint256)":"e55ae4e8","getRaffleState()":"115cbaf5","getRecentWinner()":"473f1ddc","performUpkeep(bytes)":"4585e33b","rawFulfillRandomWords(uint256,uint256[])":"1fe543e3"},"id":30}