{"abi":[{"type":"constructor","inputs":[],"stateMutability":"nonpayable"},{"type":"function","name":"DOMAIN_SEPARATOR","inputs":[],"outputs":[{"name":"","type":"bytes32","internalType":"bytes32"}],"stateMutability":"view"},{"type":"function","name":"allowance","inputs":[{"name":"","type":"address","internalType":"address"},{"name":"","type":"address","internalType":"address"}],"outputs":[{"name":"","type":"uint256","internalType":"uint256"}],"stateMutability":"view"},{"type":"function","name":"approve","inputs":[{"name":"spender","type":"address","internalType":"address"},{"name":"amount","type":"uint256","internalType":"uint256"}],"outputs":[{"name":"","type":"bool","internalType":"bool"}],"stateMutability":"nonpayable"},{"type":"function","name":"balanceOf","inputs":[{"name":"","type":"address","internalType":"address"}],"outputs":[{"name":"","type":"uint256","internalType":"uint256"}],"stateMutability":"view"},{"type":"function","name":"decimals","inputs":[],"outputs":[{"name":"","type":"uint8","internalType":"uint8"}],"stateMutability":"view"},{"type":"function","name":"mint","inputs":[{"name":"to","type":"address","internalType":"address"},{"name":"value","type":"uint256","internalType":"uint256"}],"outputs":[],"stateMutability":"nonpayable"},{"type":"function","name":"name","inputs":[],"outputs":[{"name":"","type":"string","internalType":"string"}],"stateMutability":"view"},{"type":"function","name":"nonces","inputs":[{"name":"","type":"address","internalType":"address"}],"outputs":[{"name":"","type":"uint256","internalType":"uint256"}],"stateMutability":"view"},{"type":"function","name":"permit","inputs":[{"name":"owner","type":"address","internalType":"address"},{"name":"spender","type":"address","internalType":"address"},{"name":"value","type":"uint256","internalType":"uint256"},{"name":"deadline","type":"uint256","internalType":"uint256"},{"name":"v","type":"uint8","internalType":"uint8"},{"name":"r","type":"bytes32","internalType":"bytes32"},{"name":"s","type":"bytes32","internalType":"bytes32"}],"outputs":[],"stateMutability":"nonpayable"},{"type":"function","name":"symbol","inputs":[],"outputs":[{"name":"","type":"string","internalType":"string"}],"stateMutability":"view"},{"type":"function","name":"totalSupply","inputs":[],"outputs":[{"name":"","type":"uint256","internalType":"uint256"}],"stateMutability":"view"},{"type":"function","name":"transfer","inputs":[{"name":"to","type":"address","internalType":"address"},{"name":"amount","type":"uint256","internalType":"uint256"}],"outputs":[{"name":"","type":"bool","internalType":"bool"}],"stateMutability":"nonpayable"},{"type":"function","name":"transferAndCall","inputs":[{"name":"_to","type":"address","internalType":"address"},{"name":"_value","type":"uint256","internalType":"uint256"},{"name":"_data","type":"bytes","internalType":"bytes"}],"outputs":[{"name":"success","type":"bool","internalType":"bool"}],"stateMutability":"nonpayable"},{"type":"function","name":"transferFrom","inputs":[{"name":"from","type":"address","internalType":"address"},{"name":"to","type":"address","internalType":"address"},{"name":"amount","type":"uint256","internalType":"uint256"}],"outputs":[{"name":"","type":"bool","internalType":"bool"}],"stateMutability":"nonpayable"},{"type":"event","name":"Approval","inputs":[{"name":"owner","type":"address","indexed":true,"internalType":"address"},{"name":"spender","type":"address","indexed":true,"internalType":"address"},{"name":"amount","type":"uint256","indexed":false,"internalType":"uint256"}],"anonymous":false},{"type":"event","name":"Transfer","inputs":[{"name":"from","type":"address","indexed":true,"internalType":"address"},{"name":"to","type":"address","indexed":true,"internalType":"address"},{"name":"value","type":"uint256","indexed":false,"internalType":"uint256"},{"name":"data","type":"bytes","indexed":false,"internalType":"bytes"}],"anonymous":false},{"type":"event","name":"Transfer","inputs":[{"name":"from","type":"address","indexed":true,"internalType":"address"},{"name":"to","type":"address","indexed":true,"internalType":"address"},{"name":"amount","type":"uint256","indexed":false,"internalType":"uint256"}],"anonymous":false}],"bytecode":{"object":"0x60e06040818152346200047d57620000178262000482565b60098252602091682634b735aa37b5b2b760b91b838201528151906200003d8262000482565b600493848352634c494e4b60e01b8184015281519160018060401b0393848411620004685760009380620000728654620004b4565b93601f9485811162000417575b508590858311600114620003af578792620003a3575b50508160011b916000199060031b1c19161784555b8051858111620002745780600192620000c48454620004b4565b85811162000350575b508590858311600114620002ec578792620002e0575b5050600019600383901b1c191690821b1781555b60126080524660a05285519184908554926200011384620004b4565b9081865286860194878282169182600014620002c357505060011462000287575b505083601f199203011682019180831086841117620002745782875251902090828101917f8b73c3c69bb8fe3d512ecc4cf759cc79239f7b179b0ffacaa9a75d522b39400f8352868201527fc89efdaa54c0f20c7adf612882df0950f5a951637e0307cdcb4c672f298b8bc660608201524660808201523060a082015260a0815260c081019481861090861117620002615784865251902060c05260025469d3c21bcecceda1000000908181018091116200024e57907fddf252ad1be2c89b69c2b068fc378daa952ba7f163c4a11628f55a4df523b3ef92916002553384526003825285842081815401905584523393a351610d009081620004f2823960805181610788015260a05181610b29015260c05181610b500152f35b634e487b7160e01b845260118752602484fd5b634e487b7160e01b845260418752602484fd5b634e487b7160e01b855260418852602485fd5b90869293508780528288209188925b828410620002ad5750505084010190388062000134565b8054888501860152889490930192810162000296565b92509394505060ff19168452151560051b84010190388062000134565b015190503880620000e3565b8488528688208594509190601f198416895b898282106200033957505084116200031f575b505050811b018155620000f7565b015160001960f88460031b161c1916905538808062000311565b8385015186558897909501949384019301620002fe565b9091508387528587208580850160051c82019288861062000399575b918691869594930160051c01915b8281106200038a575050620000cd565b8981558594508691016200037a565b925081926200036c565b01519050388062000095565b8780528688209250601f198416885b8882821062000400575050908460019594939210620003e6575b505050811b018455620000aa565b015160001960f88460031b161c19169055388080620003d8565b6001859682939686015181550195019301620003be565b9091508680528587208580850160051c8201928886106200045e575b9085949392910160051c01905b8181106200044f57506200007f565b88815584935060010162000440565b9250819262000433565b604187634e487b7160e01b6000525260246000fd5b600080fd5b604081019081106001600160401b038211176200049e57604052565b634e487b7160e01b600052604160045260246000fd5b90600182811c92168015620004e6575b6020831014620004d057565b634e487b7160e01b600052602260045260246000fd5b91607f1691620004c456fe6080604081815260048036101561001557600080fd5b600092833560e01c90816306fdde031461090f57508063095ea7b3146108a157806318160ddd1461088257806323b872dd146107ac578063313ce5671461076e5780633644e5151461074a5780634000aea01461056257806340c10f19146104d557806370a082311461049d5780637ecebe001461046557806395d89b411461037e578063a9059cbb1461034c578063d505accf146101085763dd62ed3e146100bd57600080fd5b3461010457816003193601126101045760209282916100da610a67565b6100e2610a82565b6001600160a01b03918216845291865283832091168252845220549051908152f35b8280fd5b509190346103485760e036600319011261034857610124610a67565b9061012d610a82565b91604435606435926084359260ff84168094036103445742851061030157610153610b24565b9560018060a01b038092169586895260209560058752848a209889549960018b01905585519285898501957f6e71edae12b1b97f4d1f60370fef10105fa2faae0126114a169c64845d6126c987528b89870152169a8b606086015288608086015260a085015260c084015260c0835260e0830167ffffffffffffffff94848210868311176102ed578188528451902061010085019261190160f01b845261010286015261012285015260428152610160840194818610908611176102da57848752519020835261018082015260a4356101a082015260c4356101c0909101528780528490889060809060015afa156102d05786511696871515806102c7575b156102955786977f8c5be1e5ebec7d5bd14f71427d1e84f3dd0314c0f7b2291e5b200ac8c7c3b9259596975283528087208688528352818188205551908152a380f35b83606492519162461bcd60e51b8352820152600e60248201526d24a72b20a624a22fa9a4a3a722a960911b6044820152fd5b50848814610252565b81513d88823e3d90fd5b634e487b7160e01b8c5260418d5260248cfd5b50634e487b7160e01b8c5260418d5260248cfd5b815162461bcd60e51b81526020818a0152601760248201527f5045524d49545f444541444c494e455f455850495245440000000000000000006044820152606490fd5b8680fd5b5080fd5b50503461034857806003193601126103485760209061037561036c610a67565b60243590610abb565b90519015158152f35b5050346103485781600319360112610348578051908260018054916103a2836109b5565b8086529282811690811561043d57506001146103e1575b5050506103cb826103dd9403836109ef565b51918291602083526020830190610a27565b0390f35b94508085527fb10e2d527612073b26eecdfd717e6a320cf44b4afac2b0732d9fcbe2b7fa0cf65b828610610425575050506103cb8260206103dd95820101946103b9565b80546020878701810191909152909501948101610408565b6103dd9750869350602092506103cb94915060ff191682840152151560051b820101946103b9565b5050346103485760203660031901126103485760209181906001600160a01b0361048d610a67565b1681526005845220549051908152f35b5050346103485760203660031901126103485760209181906001600160a01b036104c5610a67565b1681526003845220549051908152f35b50346101045781600319360112610104576104ee610a67565b602435916002549083820180921161054f57506002556001600160a01b03168084526003602090815283852080548401905592519182529183917fddf252ad1be2c89b69c2b068fc378daa952ba7f163c4a11628f55a4df523b3ef9190a380f35b634e487b7160e01b865260119052602485fd5b5090346101045760603660031901126101045761057d610a67565b92604435926024919067ffffffffffffffff83358187116107465736602388011215610746578683013597828911610733578651986020986105c8601f8301601f19168b018c6109ef565b818b5236888383010111610344578187928c8c8b8195019101378b010152338552600388528187862054106106e75790816106068261064d94610abb565b5089887fe19260aff97b920c7df27010903aeb9c8d2be5d310a2c67824cf3f15396e4c16818c60018060a01b03861697889583519384938a85528401523395830190610a27565b0390a33b61065f575b87875160018152f35b813b156106e3579784918798998361069c9951809a81958294635260769b60e11b8452338b8501528c840152606060448401526064830190610a27565b03925af180156106d9576106b4575b80879695610656565b84116106c957505050815238808080806106ab565b634e487b7160e01b825260419052fd5b86513d85823e3d90fd5b8480fd5b865162461bcd60e51b81528085018990526021818801527f496e73756666696369656e742062616c616e636520666f72207472616e7366656044820152603960f91b6064820152608490fd5b5050634e487b7160e01b83525060419052fd5b8380fd5b505034610348578160031936011261034857602090610767610b24565b9051908152f35b5050346103485781600319360112610348576020905160ff7f0000000000000000000000000000000000000000000000000000000000000000168152f35b50913461087f57606036600319011261087f576107c7610a67565b7fddf252ad1be2c89b69c2b068fc378daa952ba7f163c4a11628f55a4df523b3ef6107f0610a82565b6001600160a01b039283168085526020878152868620338752815286862054909791948893604435938993856001820161085c575b5050508688526003855282882061083d858254610a98565b9055169586815260038452208181540190558551908152a35160018152f35b61086591610a98565b90888a528652838920338a52865283892055388085610825565b80fd5b5050346103485781600319360112610348576020906002549051908152f35b50346101045781600319360112610104576020926108bd610a67565b918360243592839233825287528181209460018060a01b0316948582528752205582519081527f8c5be1e5ebec7d5bd14f71427d1e84f3dd0314c0f7b2291e5b200ac8c7c3b925843392a35160018152f35b8490843461010457826003193601126101045782805461092e816109b5565b8085529160019180831690811561043d5750600114610959575050506103cb826103dd9403836109ef565b80809650527f290decd9548b62a8d60345a988386fc84ba6bc95484008f6362f93160ef3e5635b82861061099d575050506103cb8260206103dd95820101946103b9565b80546020878701810191909152909501948101610980565b90600182811c921680156109e5575b60208310146109cf57565b634e487b7160e01b600052602260045260246000fd5b91607f16916109c4565b90601f8019910116810190811067ffffffffffffffff821117610a1157604052565b634e487b7160e01b600052604160045260246000fd5b919082519283825260005b848110610a53575050826000602080949584010152601f8019910116010190565b602081830181015184830182015201610a32565b600435906001600160a01b0382168203610a7d57565b600080fd5b602435906001600160a01b0382168203610a7d57565b91908203918211610aa557565b634e487b7160e01b600052601160045260246000fd5b3360005260036020526040600020610ad4838254610a98565b905560018060a01b03169081600052600360205260406000208181540190556040519081527fddf252ad1be2c89b69c2b068fc378daa952ba7f163c4a11628f55a4df523b3ef60203392a3600190565b6000467f000000000000000000000000000000000000000000000000000000000000000003610b7257507f000000000000000000000000000000000000000000000000000000000000000090565b60405181548291610b82826109b5565b8082528160209485820194600190878282169182600014610cac575050600114610c53575b50610bb4925003826109ef565b51902091604051918201927f8b73c3c69bb8fe3d512ecc4cf759cc79239f7b179b0ffacaa9a75d522b39400f845260408301527fc89efdaa54c0f20c7adf612882df0950f5a951637e0307cdcb4c672f298b8bc660608301524660808301523060a083015260a0825260c082019082821067ffffffffffffffff831117610c3f575060405251902090565b634e487b7160e01b81526041600452602490fd5b87805286915087907f290decd9548b62a8d60345a988386fc84ba6bc95484008f6362f93160ef3e5635b858310610c94575050610bb4935082010138610ba7565b80548388018501528694508893909201918101610c7d565b60ff19168852610bb495151560051b8501019250389150610ba7905056fea264697066735822122061ba0f3feadeae7f5f3176fba664f216b8c7f38576c260183608aa26da11feb064736f6c63430008130033","linkReferences":{}},"methodIdentifiers":{"DOMAIN_SEPARATOR()":"3644e515","allowance(address,address)":"dd62ed3e","approve(address,uint256)":"095ea7b3","balanceOf(address)":"70a08231","decimals()":"313ce567","mint(address,uint256)":"40c10f19","name()":"06fdde03","nonces(address)":"7ecebe00","permit(address,address,uint256,uint256,uint8,bytes32,bytes32)":"d505accf","symbol()":"95d89b41","totalSupply()":"18160ddd","transfer(address,uint256)":"a9059cbb","transferAndCall(address,uint256,bytes)":"4000aea0","transferFrom(address,address,uint256)":"23b872dd"},"id":32}