{"abi":[{"type":"function","name":"RELATIVE_BROADCAST_PATH","inputs":[],"outputs":[{"name":"","type":"string","internalType":"string"}],"stateMutability":"view"},{"type":"function","name":"vm","inputs":[],"outputs":[{"name":"","type":"Vm","internalType":"contract Vm"}],"stateMutability":"view"}],"bytecode":{"object":"0x6080806040523461001a5761012f9081610020823930815050f35b600080fdfe608060408181526004361015601357600080fd5b600091823560e01c9081632aa1c6961460605750633a76846314603557600080fd5b81600319360112605c5760209051737109709ecfa91a80626ff3989d68f67f5b1dd12d8152f35b5080fd5b90508260031936011260f55781810181811067ffffffffffffffff82111760e1578252600b81526020906a0b8bd89c9bd85918d85cdd60aa1b8282015282519382859384528251928382860152825b84811060cc57505050828201840152601f01601f19168101030190f35b818101830151888201880152879550820160af565b634e487b7160e01b84526041600452602484fd5b8280fdfea2646970667358221220930a1a506c7a221014596e9a703bf7d58c5787857fc274e8e87bd4b0e849a59d64736f6c63430008130033","linkReferences":{}},"methodIdentifiers":{"RELATIVE_BROADCAST_PATH()":"2aa1c696","vm()":"3a768463"},"id":24}