{"abi":[{"type":"function","name":"mostSignificantBit","inputs":[{"name":"x","type":"uint256","internalType":"uint256"}],"outputs":[{"name":"msb","type":"uint256","internalType":"uint256"}],"stateMutability":"pure"}],"bytecode":{"object":"0x6080604052348015600e575f5ffd5b506102928061001c5f395ff3fe608060405234801561000f575f5ffd5b5060043610610029575f3560e01c8063e6bcbc651461002d575b5f5ffd5b610047600480360381019061004291906101a9565b61005d565b60405161005491906101e3565b60405180910390f35b5f6f01000000000000000000000000000000821061008c57608082901c91506080816100899190610229565b90505b6801000000000000000082106100b357604082901c91506040816100b09190610229565b90505b64010000000082106100d657602082901c91506020816100d39190610229565b90505b6201000082106100f757601082901c91506010816100f49190610229565b90505b610100821061011757600882901c91506008816101149190610229565b90505b6010821061013657600482901c91506004816101339190610229565b90505b6004821061015557600282901c91506002816101529190610229565b90505b6002821061016d5760018161016a9190610229565b90505b919050565b5f5ffd5b5f819050919050565b61018881610176565b8114610192575f5ffd5b50565b5f813590506101a38161017f565b92915050565b5f602082840312156101be576101bd610172565b5b5f6101cb84828501610195565b91505092915050565b6101dd81610176565b82525050565b5f6020820190506101f65f8301846101d4565b92915050565b7f4e487b71000000000000000000000000000000000000000000000000000000005f52601160045260245ffd5b5f61023382610176565b915061023e83610176565b9250828201905080821115610256576102556101fc565b5b9291505056fea26469706673582212209bd4f40f7eed8c5b774838ea5153ef711c5f6904d78ec7f39ea26337c0cf805064736f6c634300081c0033","linkReferences":{}},"methodIdentifiers":{"mostSignificantBit(uint256)":"e6bcbc65"},"id":19}