{"abi":[{"type":"function","name":"count","inputs":[],"outputs":[{"name":"","type":"uint256","internalType":"uint256"}],"stateMutability":"view"},{"type":"function","name":"dec","inputs":[],"outputs":[],"stateMutability":"nonpayable"},{"type":"function","name":"get","inputs":[],"outputs":[{"name":"","type":"uint256","internalType":"uint256"}],"stateMutability":"view"},{"type":"function","name":"inc","inputs":[],"outputs":[],"stateMutability":"nonpayable"},{"type":"function","name":"set","inputs":[{"name":"_count","type":"uint256","internalType":"uint256"}],"outputs":[],"stateMutability":"nonpayable"},{"type":"error","name":"Counter__MaximumReached","inputs":[]},{"type":"error","name":"Counter__MinimumReached","inputs":[]}],"bytecode":{"object":"0x6080604052348015600e575f5ffd5b506102fa8061001c5f395ff3fe608060405234801561000f575f5ffd5b5060043610610055575f3560e01c806306661abd14610059578063371303c01461007757806360fe47b1146100815780636d4ce63c1461009d578063b3bcfa82146100bb575b5f5ffd5b6100616100c5565b60405161006e91906101b7565b60405180910390f35b61007f6100ca565b005b61009b600480360381019061009691906101fe565b61013c565b005b6100a5610145565b6040516100b291906101b7565b60405180910390f35b6100c361014d565b005b5f5481565b7fffffffffffffffffffffffffffffffffffffffffffffffffffffffffffffffff5f5410610124576040517fe617e0e600000000000000000000000000000000000000000000000000000000815260040160405180910390fd5b5f5f81548092919061013590610256565b9190505550565b805f8190555050565b5f5f54905090565b5f5f5411610187576040517f84a0283e00000000000000000000000000000000000000000000000000000000815260040160405180910390fd5b5f5f8154809291906101989061029d565b9190505550565b5f819050919050565b6101b18161019f565b82525050565b5f6020820190506101ca5f8301846101a8565b92915050565b5f5ffd5b6101dd8161019f565b81146101e7575f5ffd5b50565b5f813590506101f8816101d4565b92915050565b5f60208284031215610213576102126101d0565b5b5f610220848285016101ea565b91505092915050565b7f4e487b71000000000000000000000000000000000000000000000000000000005f52601160045260245ffd5b5f6102608261019f565b91507fffffffffffffffffffffffffffffffffffffffffffffffffffffffffffffffff820361029257610291610229565b5b600182019050919050565b5f6102a78261019f565b91505f82036102b9576102b8610229565b5b60018203905091905056fea2646970667358221220bfc9d5a6c1860a8e0afe1278dfd93e60ff80f441ab1e3b34f3f5085ce8a40bb664736f6c634300081c0033","linkReferences":{}},"methodIdentifiers":{"count()":"06661abd","dec()":"b3bcfa82","get()":"6d4ce63c","inc()":"371303c0","set(uint256)":"60fe47b1"},"id":19}